:040000006EEF00F0AF
:100008004882FACF06F0FBCF07F0E9CF08F0EACF35
:1000180009F0E1CF0AF0E2CF0BF0D9CF0CF0DACF3C
:100028000DF0F3CF0EF0F4CF0FF0F6CF10F0F7CFBE
:1000380011F0F8CF12F0F5CF13F048C014F049C012
:1000480015F04AC016F04BC017F0F2B6F2A003D074
:10005800E1EC21F019D0F2BAF2A403D0E9EC17F0E0
:1000680013D0F2AC11D0A0B8A1A803D035EC22F07F
:100078000BD09DB89EA803D06FEC1FF005D09DBA99
:100088009EAA02D057EC20F017C04BF016C04AF0D9
:1000980015C049F014C048F013C0F5FF12C0F8FFAE
:1000A80011C0F7FF10C0F6FF0FC0F4FF0EC0F3FF3A
:1000B8000DC0DAFF0CC0D9FF0BC0E2FF0AC0E1FF98
:1000C80009C0EAFF08C0E9FF07C0FBFF06C0FAFF46
:0800D80048921100FAEF19F043
:10060000001C0401000B3061003A19C000C9FC1045
:100610001128042D10E700001276600035250080B7
:100620000084BF0008030000001200000001000069
:100630000C8006200004080C0010001400000018B4
:100640001C000405060708090A0D194423446344E5
:10065000A344E30204060800803F72313FFE753E6A
:1006600058633D951D3CC5AE3A7921399480379346
:10067000A73556153400000000803FF0FFBEE2A908
:100680003E8376BEAE2B3E3CC3BDD2133D78D3BB7A
:100690004A756C20303820323031380031353A31EB
:1006A000333A31350000000E0001606F000E616FBB
:1006B000000E626F000E636F640E206E000E216EDE
:1006C000000E236E120E226E58EC21F0240E000153
:1006D000646F020E656F220E666F0D0E676FD00E8F
:1006E000246EFF0E256E970EF66E060EF76E08004E
:1006F000F5CF26F0D00E2624186E196AFF0E1922A7
:10070000030E1B6EE80E1A6EBFEC20F09A0EF66E0A
:10071000060EF76E0800F550276E286A1850272637
:1007200019502822980EF66E060EF76E0800F5CFC7
:1007300029F0D00E2924186E196AFF0E1922000E16
:100740001B6E640E1A6EBFEC20F01850272619504D
:100750002822990EF66E060EF76E0800F5CF2AF0E5
:10076000D00E2A24186E196AFF0E1922000E1B6E75
:100770000A0E1A6EBFEC20F01850272619502822B6
:10078000245027262550282228C027F0286A2750E1
:100790000001686F9A0EF66E060EF76E0800F5CF30
:1007A00024F0990EF66E060EF76E0800F550D00F85
:1007B0000A0DF3CF25F0980EF66E060EF76E0800C0
:1007C000F5CF26F0D00E2624186E196AFF0E1922D6
:1007D000000E1B6E640E1A6EBFEC20F0970EF66EC4
:1007E000060EF76E0800F550D00FE80DF3501824F0
:1007F00025242424D00F0001696F900EF66E060E9A
:10080000F76E0800F5CF6AF0910EF66E060EF76EE1
:100810000800F5CF6BF0920EF66E060EF76E08002C
:10082000F5CF6CF0940EF66E060EF76E300E0800E3
:10083000F56005D0000E776F000E766F17D0940E1E
:10084000F66E060EF76E0800F5CF24F0D00E2424C5
:10085000186E196AFF0E1922000E1B6E0A0E1A6E10
:10086000BFEC20F018C076F019C077F0D00E246EDF
:10087000FF0E256E950EF66E060EF76E0800F5500B
:1008800000017625266E000E7721276E245026263D
:100890002550272227C026F0276A26506D6F940E18
:1008A000F66E060EF76E300E0800F56005D0000EED
:1008B000796F000E786F17D0940EF66E060EF76EF5
:1008C0000800F5CF24F0D00E2424186E196AFF0E0C
:1008D0001922000E1B6E0A0E1A6EBFEC20F018C013
:1008E00078F019C079F0950EF66E060EF76E0800D6
:1008F000F55000017825D00F6E6FD00E246EFF0EDC
:10090000256E9C0EF66E060EF76E0800F5CF26F0EB
:10091000D00E2624186E196AFF0E1922000E1B6EC7
:100920000A0E1A6EBFEC20F09D0EF66E060EF76EE4
:100930000800F5501826000E1922245018262550BC
:10094000192219C018F0196A185000016F6F9D0E16
:10095000F66E060EF76E0800F5CF24F09C0EF66ECC
:10096000060EF76E0800F550D00F0A0DF350242440
:10097000D00F706FD00E246EFF0E256E9F0EF66E98
:10098000060EF76E0800F5CF26F0D00E2624186E5E
:10099000196AFF0E1922000E1B6E0A0E1A6EBFECAA
:1009A00020F0A00EF66E060EF76E0800F550182621
:1009B000000E1922245018262550192219C018F0AB
:1009C000196A18500001716FA00EF66E060EF76ED0
:1009D0000800F5CF24F09F0EF66E060EF76E0800A5
:1009E000F550D00F0A0DF3502424D00F726FD00EA3
:1009F000246EFF0E256EA20EF66E060EF76E080030
:100A0000F5CF26F0D00E2624186E196AFF0E192293
:100A1000000E1B6E0A0E1A6EBFEC20F0A30EF66ECF
:100A2000060EF76E0800F5501826000E1922245005
:100A300018262550192219C018F0196A18500001FB
:100A4000736FA30EF66E060EF76E0800F5CF24F056
:100A5000A20EF66E060EF76E0800F550D00F0A0DC6
:100A6000F3502424D00F746F640E186E000E196EAC
:100A7000000E1B6E110E1A6ED9EC1DF00001756F81
:100A8000640E196E000E1A6E000E1C6E120E1B6E96
:100A90008BEC1FF0120002017A6F660E206E020EC0
:100AA000216E000E236E140E226E58EC21F0000E03
:100AB00002017B6F000E7C6F460E206E020E216ECF
:100AC000000E236E1D0E226E58EC21F0240E020142
:100AD000466F040E476F170E496F7A51D8A464D041
:100AE000470E486F000E0001B26F040EB16F350E55
:100AF000F66E060EF76E0800F55070EC10F0B1C0FF
:100B000066F2B2C067F2B3C068F2B4C069F2000E18
:100B10000001B26F040EB16F360EF66E060EF76E60
:100B20000800F55070EC10F0B1C06AF2B2C06BF280
:100B3000B3C06CF2B4C06DF2000E0001B26F040ECF
:100B4000B16F370EF66E060EF76E0800F55070ECBA
:100B500010F0B1C06EF2B2C06FF2B3C070F2B4C0A8
:100B600071F2000E0001B26F040EB16F390EF66E15
:100B7000060EF76E0800F55070EC10F0B1C072F27E
:100B8000B2C073F2B3C074F2B4C075F2000E0001CB
:100B9000B26F040EB16F400EF66E060EF76E0800CF
:100BA000F55070EC10F06CD002017A05D8A470D02A
:100BB000460E486F000E0001B26F040EB16F350E85
:100BC000F66E060EF76E0800F550200970EC10F076
:100BD000B1C066F2B2C067F2B3C068F2B4C069F2E5
:100BE000000E0001B26F040EB16F360EF66E060EE7
:100BF000F76E0800F550200970EC10F0B1C06AF2F1
:100C0000B2C06BF2B3C06CF2B4C06DF2000E000162
:100C1000B26F040EB16F370EF66E060EF76E080057
:100C2000F550200970EC10F0B1C06EF2B2C06FF256
:100C3000B3C070F2B4C071F2000E0001B26F040EC6
:100C4000B16F390EF66E060EF76E0800F5502009EA
:100C500070EC10F0B1C072F2B2C073F2B3C074F2B3
:100C6000B4C075F2000E0001B26F040EB16F400EF9
:100C7000F66E060EF76E0800F550200970EC10F0C5
:100C8000B1C076F2B2C077F2B3C078F2B4C079F2F4
:100C9000000E02017B6F040E7B6501D032D0000E86
:100CA0007C6F040E7C6501D02AD07B51040D660E4A
:100CB000F324D96E020EF420DA6EDECF18F0DECF08
:100CC00019F0DECF1AF0DECF1BF07CC21CF052EC24
:100CD0001CF00201636F7B51050D7C51F326000E61
:100CE000F422040EF326000EF422460EF324D96EED
:100CF000020EF420DA6E63C2DFFF7C2BD2D77B2B8F
:100D0000CAD77A51D8B403D044C064F202D045C0E7
:100D100064F2656B64C261F2460E186E020E196EC3
:100D2000000E1B6E1C0E1A6ED9EC1DF00201626FD4
:100D3000460E196E020E1A6E000E1C6E1D0E1B6EF4
:100D40008BEC1FF012000001CC6F010E186E000139
:100D5000CC51C3EC1EF0000E0001CE6F000EC86F28
:100D6000000EC96F000ECA6F000ECB6F000ECD6F64
:100D70000C0ECD6501D01200CD2900080D0FCE6FED
:100D8000CE51D8B413D0CE05D8B410D0020ECE199F
:100D9000D8B40CD0040ECE19D8B408D0060ECE1993
:100DA000D8B404D00A0ECE19D8A4EBD0CC51D8A414
:100DB00071D0000EB26F040EB16FCE51010D350E21
:100DC000F324F66E060EF420F76E0800F55070EC72
:100DD00010F0B1C0C8F0B2C0C9F0B3C0CAF0B4C01E
:100DE000CBF00001C82947E1C92945E1CA2943E1FF
:100DF000CB29D8A440D0CD51040D010EF324F66EBA
:100E0000060EF420F76E0900F5CF29F00900F5CFA2
:100E10002AF00900F5CF2BF00A00F5CF2CF0030ED5
:100E20002D6ECC513FEC18F00001CD51040D010E98
:100E3000F324F66E060EF420F76E0900F5CF21F0CC
:100E40000900F5CF22F00900F5CF23F00A00F5CF15
:100E500024F0CE51010D350EF324F66E060EF4206B
:100E6000F76E0800F5CF25F0000E276E040E266EF3
:100E700037EC1FF0A0D0C8C029F0C9C02AF0CAC002
:100E80002BF0CBC02CF0030E2D6E0001CC513FECAB
:100E900018F091D00001CC05D8A48DD0000EB26F0F
:100EA000040EB16FCE51010D350EF324F66E060E11
:100EB000F420F76E0800F550200970EC10F0B1C076
:100EC000C8F0B2C0C9F0B3C0CAF0B4C0CBF00001E2
:100ED000C82948E1C92946E1CA2944E1CB29D8A457
:100EE00041D0CD51040D010EF324F66E060EF42010
:100EF000F76E0900F5CF29F00900F5CF2AF00900B7
:100F0000F5CF2BF00A00F5CF2CF0030E2D6ECC514F
:100F10003FEC18F00001CD51040D010EF324F66EE4
:100F2000060EF420F76E0900F5CF21F00900F5CF89
:100F300022F00900F5CF23F00A00F5CF24F0CE51BE
:100F4000010D350EF324F66E060EF420F76E080040
:100F5000F5502009256E000E276E040E266E37EC24
:100F60001FF029D0C8C029F0C9C02AF0CAC02BF090
:100F7000CBC02CF0030E2D6E0001CC513FEC18F0CD
:100F80001AD00001CD51040D010EF324F66E060EA9
:100F9000F420F76E0900F5CF29F00900F5CF2AF00B
:100FA0000900F5CF2BF00A00F5CF2CF0030E2D6EC3
:100FB000CC513FEC18F00001CD2BDAD6000E000129
:100FC000BC6F000EBB6F000EC06F000EB86F000E3E
:100FD000B76F000EBA6F000EB96F3D50D8A4A3D002
:100FE000000EC06F080EC06501D06DD0C051010D5C
:100FF000420EF324F66E060EF420F76E0800F5504C
:101000003FEC20F018C0B3F019C0B4F0000E00019E
:10101000A36F200EA46F410EA56F000EA06F000EEF
:10102000A16F400EA26F5DEC0EF0A0C0BDF0A1C09C
:10103000BEF0A2C0BFF0C00E00016C6F500E6D6F0D
:10104000450E6E6FBDC02CF0BEC02DF0BFC02EF09F
:10105000B3C020F0B4C021F0F6EC20F020C029F09D
:1010600021C02AF022C02BF002EC13F029C069F055
:101070002AC06AF02BC06BF087EC12F069C078F0E0
:101080006AC079F06BC07AF00BEC12F078C0BBF05C
:1010900079C0BCF0BBC02DF0BCC02EF00001C0294F
:1010A0002F6E89EC11F0030E0001B26F8A0EB16F42
:1010B000550EE82EFED7B12FFCD7B22FFAD700D0AD
:1010C0000001C02B8FD7B00E186E010E196E000EE6
:1010D0001B6E0C0E1A6E5BEC1BF018C0B7F019C03B
:1010E000B8F0B7C02DF0B8C02EF00001C0292F6EA7
:1010F00089EC11F0A40E186E010E196E000E1B6E15
:101100000C0E1A6E5BEC1BF018C0B9F019C0BAF0E7
:10111000B9C02DF0BAC02EF00001C051020F2F6EE1
:1011200089EC11F012003D04D8A412000001F65120
:10113000010D420EF324F66E060EF420F76E080041
:10114000F5503FEC20F018C0B5F019C0B6F0000E15
:101150000001A36F200EA46F410EA56F000EA06FBB
:10116000000EA16F400EA26F5DEC0EF0A0C0BDF0AE
:10117000A1C0BEF0A2C0BFF0C00E00016C6F500E47
:101180006D6F450E6E6FBDC02CF0BEC02DF0BFC0A0
:101190002EF0B5C020F0B6C021F0F6EC20F020C053
:1011A00029F021C02AF022C02BF002EC13F029C054
:1011B00069F02AC06AF02BC06BF087EC12F069C0AE
:1011C00078F06AC079F06BC07AF00BEC12F078C05E
:1011D000BBF079C0BCF01200000E0001E36F000EFE
:1011E000E26F87C066F088C067F00A0E1DEC0FF052
:1011F00020EED4F0070EEBCFDBFFE806FCE2D4C014
:10120000E2F0D5C0E3F0FEEC21F00009D8B4120002
:1012100001013051311132113311D8A405D0550ECE
:10122000246E050EB0EC1DF0E2C089F0E3C08AF038
:10123000000E00018ABFFF0E8B6F8C6F01013051D1
:101240000001895D0101315100018A5901013251CA
:1012500000018B590101335100018C59D8B00AD0DB
:10126000E2C0DCF0E3C0DDF0000EDDBFFF0EDE6F9C
:10127000DF6F08D030C1DCF031C1DDF032C1DEF00B
:1012800033C1DFF0DCC0E2F0DDC0E3F03EC0C8F106
:101290003FC0C9F140C0CAF141C0CBF1000EE16FBF
:1012A000000EE06F8AD00101C851C911CA11CB11DB
:1012B000D8B407D0400EC85F000EC95BCA5BCB5BD9
:1012C00008D0B00EC86F7F0EC96F000ECA6F000E37
:1012D000CB6F8F0E206E000E216E000E236E450E1A
:1012E000226E58EC21F0240E00018F6F050E906FD6
:1012F000540E916F400E926F000EE56F000EE46F7A
:10130000E5BF06D0E55134E1400EE45DD8B030D001
:10131000040EE425896F000EE5218A6F8F0E892562
:10132000D96E000E8A21DA6EE4C08BF0E5C08CF035
:10133000000E8CBFFF0E8D6F8E6F0101C851000132
:101340008B25186E0101C95100018C21196E010114
:10135000CA5100018D211A6E0101CB5100018E216D
:101360001B6ED0EC21F0DF6E0001E44BE52BC8D7FB
:101370008F0E186E000E196E000E1B6E440E1A6E44
:10138000D9EC1DF00001D36F8F0E196E000E1A6E8E
:10139000000E1C6E450E1B6E8BEC1FF0030E000141
:1013A0008A6F080E896F770EE82EFED7892FFCD73B
:1013B0008A2FFAD70001E04BE12BE251E05DE151C9
:1013C000800A896FE351800A8959D8B012006BD71F
:1013D0000001975198119911D8A407D0000E976F6A
:1013E000800E986F3F0E996F1200720E186E310EBC
:1013F000196E440E1A6E97C01BF098C01CF099C06D
:101400001DF02BEC19F0D8B00DD0000E0101356F96
:10141000220E346FFF0E0001976F7F0E986F7F0EC4
:10142000996F120097C018F098C019F099C01AF07F
:10143000490E1B6E3A0E1C6EC40E1D6E2BEC19F07D
:10144000D8B00DD0000E0101356F220E346F000EA2
:101450000001976F000E986F000E996F1200000147
:1014600099AF02D0010E01D0000E9F6F9F51D8B4EA
:101470000ED097C018F098C019F099C01AF0E4EC9B
:1014800020F018C097F019C098F01AC099F097C0D2
:1014900069F098C06AF099C06BF0AA0E00016C6FF9
:1014A000B80E6D6F3F0E6E6F87EC12F069C097F04B
:1014B0006AC098F06BC099F097C08FF098C090F018
:1014C00099C091F0CCEC14F08FC09AF090C09BF0D2
:1014D00091C09CF09AC078F09BC079F09CC07AF0E3
:1014E0000BEC12F078C09DF079C09EF097C084F0AC
:1014F00098C085F099C086F09DC020F09EC021F074
:1015000053EC1FF020C087F021C088F022C089F082
:1015100044EC1EF084C097F085C098F086C099F026
:1015200097C084F098C085F099C086F0570E0001EE
:10153000876F060E886F000E8A6F090E896FA8EC00
:1015400015F084C08EF085C08FF086C090F09DC0ED
:1015500091F09EC092F013EC16F08EC097F08FC001
:1015600098F090C099F000019F51D8B425D09729E8
:101570000EE17F0E98190BE17F0E9919D8A407D0C0
:10158000000E976F000E986F000E996F1200000EFC
:10159000296E800E2A6E3F0E2B6E97C02CF098C0DD
:1015A0002DF099C02EF002EC13F029C097F02AC05C
:1015B00098F02BC099F0120097C097F098C098F05F
:1015C00099C099F01200000E0001EF6FD3D0040E05
:1015D000F5651200010EF46F120084EC20F0000E8D
:1015E0000001F06F010EF5650DD000EC1EF000015A
:1015F000EF6FEFC090F1240EEF19D8A41200020E85
:10160000F46F1200000EF46F1200010EF565120067
:1016100000EC1EF00001F36FF3C091F1030EF46FC4
:101620001200010EF565120000EC1EF00001F26FD1
:10163000F2C092F1040EF46F1200010EF565120073
:1016400000EC1EF00001F16FF1C093F1F151D8A44C
:1016500003D0060EF46F1200050EF46F1200F15164
:10166000F55DD8A012007C0E206E010E216E000EDA
:10167000236E140E226E58EC21F0000E0001EE6F66
:10168000000EED6F1ED000EC1EF00001EF6FF05168
:10169000E96FEA6B040EE927000EEA23900EE925B4
:1016A000D96E010EEA21DA6EEFC0DFFFF02B7C0E5F
:1016B000ED25D96E010EEE21DA6EEFC0DFFFED4BA6
:1016C000EE2BF151E96FEA6BE951ED5DEE51800AC5
:1016D000EB6FEA51800AEB59D8A0D5D7060EF46F0C
:1016E0001200F551D8B4120000EC1EF03B6E900EC3
:1016F000186E010E196E040E0001F0251A6E1B6A99
:10170000000E1B22D9EC1DF03C6E3C503B18D8A4B7
:1017100004D0070E0001F46F1200000E0001F46FF8
:101720001200FE0EE96FFF0EEA6FF351EB6FEC6BE8
:10173000D890EB37EC37E951EB27EA51EC23BC0E9C
:10174000EB25D96E010EEC21DA6E01D80FD0050021
:10175000FA6EDE50FD6EDE50FE6EF850FF6EFA50EF
:101760007C0EE66F010EE76FF2511200000E0001D1
:10177000F46F1200F451000AD8B429D7010AD8B482
:101780002CD7030AD8B441D7010AD8B44AD7070ADC
:10179000D8B453D7010AD8B462D7030AD8B4A1D7B2
:1017A000010AD8A41200BDD726C0D9FF27C0DAFF8E
:1017B000DF500001656F264A272A6551ACEC20F006
:1017C000D8B0F2D7000E0001616F000E626F000EFC
:1017D000636F000E646F000E606F2D0E6519D8A444
:1017E00003D0010E606F04D02B0E6519D8A408D069
:1017F00026C0D9FF27C0DAFFDF50656F264A272AA7
:10180000300E6519D8A42ED026C0D9FF27C0DAFF24
:10181000DF50656F264A272A2A502B10D8B405D0EE
:10182000100E2A182B10D8A415D0780E6519D8B42C
:1018300004D0580E6519D8A40DD0000E2B6E100ED2
:101840002A6E26C0D9FF27C0DAFFDF50656F264A0F
:10185000272A08D02A502B10D8A404D0000E2B6EB3
:10186000080E2A6E2A502B10D8A404D0000E2B6E1E
:101870000A0E2A6E655198EC20F0D8A008D000011D
:101880006551B2EC21F0C90F0001656F09D000016C
:1018900065513AEC21F0D8A039D0300E0001655FD7
:1018A00065512C6E2D6A2A502C5C2D50800A2E6EAC
:1018B0002B50800A2E58D8B029D02AC01AF02BC03D
:1018C0001BF0000E1BBEFF0E1C6E1D6E61C01EF0D5
:1018D00062C01FF063C020F064C021F05CEC1DF01A
:1018E000000165511A24616F000E1B20626F000E0B
:1018F0001C20636F000E1D20646F26C0D9FF27C017
:10190000DAFFDF50656F264A272AB4D728502910FE
:10191000D8B40ED0FF0E26242C6EFF0E27202D6E7D
:1019200028C0D9FF29C0DAFF2CC0DEFF2DC0DDFFA3
:1019300000016051D8B41AD061C02CF062C02DF003
:1019400063C02EF064C02FF02C1E2D1E2E1E2F1EE5
:101950002C2A000E2D222E222F222CC026F02DC044
:1019600027F02EC028F02FC029F0120061C026F009
:1019700062C027F063C028F064C029F012007AC06A
:101980007EF000017F6B806B79357E3701E37F81CC
:101990007E51836F7DC07EF07F6B806B7C357E37A0
:1019A00001E37F817E51826F8351D8B40BD0825185
:1019B000835DD8B00ED08351000882257E6F180E4B
:1019C0007E6507D07BC078F07CC079F07DC07AF06E
:1019D00012008251D8B40BD08351825DD8B00ED0A2
:1019E0008251000883257E6F180E7E6507D078C06F
:1019F00078F079C079F07AC07AF01200060E816F23
:101A00007ABF818F7DBF818D798FFF0E7817FF0E92
:101A10007917000E7A177C8FFF0E7B17FF0E7C174D
:101A2000000E7D178251835DD8B01BD0D8907B37D4
:101A30007C377D37820783518219D8B40DD0810756
:101A400081C07EF0070E7E17D8B406D0EFD7D890AD
:101A50007A3379337833832B82518319D8B41FD0EA
:101A6000F6D78351825DD8B01AD0D89078377937BD
:101A70007A37830783518219D8B40DD0810781C08A
:101A80007EF0070E7E17D8B406D0EFD7D8907D33FE
:101A90007C337B33822B82518319D8A4F7D781AF53
:101AA0000CD0FF0E781BFF0E791BFF0E7A1B010E68
:101AB0007827000E7923000E7A2381AD0CD0FF0E1B
:101AC0007B1BFF0E7C1BFF0E7D1B010E7B27000E78
:101AD0007C23000E7D23000E816F78517B27795186
:101AE0007C237A517D237DAF0ED0FF0E7B1BFF0E32
:101AF0007C1BFF0E7D1B010E7B27000E7C23000E3E
:101B00007D23010E816F7BC018F07CC019F07DC071
:101B10001AF083C01BF081C01CF092EC17F018C0C3
:101B200078F019C079F01AC07AF0120000018C6FB9
:101B30008AC066F08BC067F00A0E1DEC0FF020EE35
:101B40008DF0070EEBCFDBFFE806FCE20B0E000189
:101B50009119921193119411D8A438D08C51D8A412
:101B600018D08DC021F08EC022F08FC023F090C01D
:101B700024F0350E9125F66E060E9221F76E0800C0
:101B8000F5CF25F0000E276E040E266E37EC1FF001
:101B9000120000018C05D8A412008DC021F08EC067
:101BA00022F08FC023F090C024F0350E9125F66E00
:101BB000060E9221F76E0800F5502009256E000EE2
:101BC000276E040E266E37EC1FF0120000018C51B8
:101BD000D8A437D0070E3A602CD08DC029F08EC023
:101BE0002AF08FC02BF090C02CF0030E2D6E8C517C
:101BF0003FEC18F08DC021F08EC022F08FC023F092
:101C000090C024F0350E00019125F66E060E92214B
:101C1000F76E0800F5CF25F0000E276E040E266E35
:101C200037EC1FF03A2A480E246E040EB0EC1DF07B
:101C30001200000E3A6E420E246E040EB0EC1DF03F
:101C4000120000018C05D8A41200070E39602DD0B7
:101C50008DC029F08EC02AF08FC02BF090C02CF0E0
:101C6000030E2D6E8C513FEC18F08DC021F08EC00C
:101C700022F08FC023F090C024F0350E0001912592
:101C8000F66E060E9221F76E0800F5502009256EBB
:101C9000000E276E040E266E37EC1FF0392A490E0F
:101CA000246E040EB0EC1DF01200000E396E430ECF
:101CB000246E040EB0EC1DF01200000E0001AC6F9B
:101CC000A051A111A211D8A41DD0000E186E000EB3
:101CD000196E000E1A6EA3C01BF0A4C01CF0A5C0A4
:101CE0001DF02BEC19F0D8A005D0000E0101356FC6
:101CF000210E346F000E0001A06F000EA16F000EC8
:101D0000A26F1200A351A411A511D8A407D0000EF0
:101D1000A06F800EA16F3F0EA26F1200A2AF43D042
:101D2000A3C078F0A4C079F0A5C07AF00BEC12F053
:101D300078C0ADF079C0AEF07AC0AFF07BC0B0F043
:101D4000ADC020F0AEC021F0AFC022F0B0C023F093
:101D500080EC1CF00001A351201807E1A4512118C8
:101D600004E1A5512218D8B40DD0000E0101356F41
:101D7000210E346F000E0001A06F000EA16F000E47
:101D8000A26F1200AD51010BAC6FA0C018F0A1C042
:101D900019F0A2C01AF0E4EC20F018C0A0F019C0AD
:101DA000A1F01AC0A2F0A0C08EF0A1C08FF0A2C016
:101DB00090F0DBEC0FF08EC0A6F08FC0A7F090C0C3
:101DC000A8F0A6C069F0A7C06AF0A8C06BF0A3C0D5
:101DD0006CF0A4C06DF0A5C06EF087EC12F069C085
:101DE000A9F06AC0AAF06BC0ABF0A9C097F0AAC076
:101DF00098F0ABC099F0E8EC09F097C0A0F098C05B
:101E0000A1F099C0A2F00001AC51D8B40FD0A0C08D
:101E100018F0A1C019F0A2C01AF0E4EC20F018C02C
:101E2000A0F019C0A1F01AC0A2F01200A0C0A0F04A
:101E3000A1C0A1F0A2C0A2F0120000017A6F000EB2
:101E400000017C6F000E7D6F000E7E6F000E7F6FB5
:101E5000000E806F000E816F000E826F000E836F88
:101E6000000E866F000E7B6F700E206E000E216ECE
:101E7000000E236E0A0E226E58EC21F0000E0001B7
:101E8000866F090E866501D01DD08651010DF35075
:101E90006625D96EF4506721DA6EDF507B6F100E25
:101EA0007B19D8A402D0862B0DD08651010D700E5F
:101EB000F324D96E000EF420DA6E7B51300FDF6E02
:101EC000862BDFD7700E266E000E276E000E286E52
:101ED000000E296E7A512A6E2B6A2ABE2B06D4EC8C
:101EE0000BF026C07CF027C07DF028C07EF029C012
:101EF0007FF0700E206E000E216E000E236E0A0E13
:101F0000226E58EC21F0000E0001856F000E846FE8
:101F100085BF06D085512EE10A0E845DD8B02AD047
:101F2000865184256E6F000E85216F6F6E51662578
:101F3000D96E6F516721DA6EDF507B6F230E7B19EC
:101F4000D8B418D0700E8425D96E000E8521DA6EB3
:101F5000865184256E6F000E85216F6F6E51662548
:101F6000E16E6F516721E26EE750300FDF6E844BF8
:101F7000852BCED7700E266E000E276E000E286EB3
:101F8000000E296E7A512A6E2B6A2ABE2B06D4ECDB
:101F90000BF026C080F027C081F028C082F029C055
:101FA00083F020EE7CF000EE66F0070EDBCFEBFF57
:101FB000E806FCE21200000190AF0DD0000E010116
:101FC000356F210E346F000E00018E6F000E8F6F83
:101FD000000E906F12008E518F119011D8A40DD069
:101FE000000E0101356F220E346F000E00018E6F5E
:101FF000000E8F6F000E906F1200000E6C6F000EBF
:102000006D6F400E6E6F910E1B6E000E1C6E8EC0BB
:1020100018F08FC019F090C01AF0E3EC18F018C057
:1020200069F019C06AF01AC06BF087EC12F069C051
:1020300078F06AC079F06BC07AF0000E00017B6F17
:10204000800E7C6FBF0E7D6FBFEC0CF078C08EF001
:1020500079C08FF07AC090F000019107D8A0920764
:102060008EC084F08FC085F090C086F0750E876FAB
:10207000060E886F000E8A6F080E896FA8EC15F0A7
:1020800084C08EF085C08FF086C090F0720E000183
:102090006C6F310E6D6F3F0E6E6F91C020F092C06D
:1020A00021F053EC1FF020C069F021C06AF022C07B
:1020B0006BF087EC12F069C078F06AC079F06BC001
:1020C0007AF08EC07BF08FC07CF090C07DF0BFECCA
:1020D0000CF078C08EF079C08FF07AC090F01200CA
:1020E0000001C26F000E0001C36F000EC46F000E2E
:1020F000C56F000EC66FB151C25F000EC76F6DD0C5
:10210000C751B56FB66B010EB527000EB623B51FCC
:10211000B61FB54BB62BB151B527B251B623D890E7
:10212000B537B637D890B537B637D890B537B63754
:10213000B5C020F0B6C021F053EC1FF020C0BCF0B9
:1021400021C0BDF022C0BEF0BCC0A3F0BDC0A4F051
:10215000BEC0A5F0000E0001A06F000EA16F400EE2
:10216000A26F5DEC0EF0A0C0BFF0A1C0C0F0A2C095
:10217000C1F0BFC078F0C0C079F0C1C07AF00BECFC
:1021800012F078C0B8F079C0B9F07AC0BAF07BC06C
:10219000BBF00001C251C72525EC22F00001B56F4C
:1021A000B5511A6E1B6A1C6A1D6AB8C01EF0B9C010
:1021B0001FF0BAC020F0BBC021F05CEC1DF00001A4
:1021C000C3511A10C36FC4511B10C46FC5511C10EA
:1021D000C56FC6511D10C66FC72BC751B56FB66B03
:1021E000B151B55DB651800AB76FB251800AB75987
:1021F000D8A086D7C3C0B1F0C4C0B2F0C5C0B3F098
:10220000C6C0B4F01200280E206E000E216E000E23
:10221000236E090E226E58EC21F0240E286E050E56
:10222000296E520E2A6E040E2B6E700E186E3A0E28
:10223000196E000E1A6E000E1B6E010E1C6E52EC13
:102240001CF02C6E700E186E3A0E196E000E1A6E7F
:10225000000E1B6E000E1C6E52EC1CF02D6E3EC06C
:1022600024F03FC025F040C026F041C027F0241ED6
:10227000251E261E271E242A000E2522262227225E
:10228000F00E2424186E7F0E2520196E000E2620D5
:102290001A6E000E27201B6E010E1C6E52EC1CF0F5
:1022A0002E6E3EC024F03FC025F040C026F041C055
:1022B00027F0241E251E261E271E242A000E252256
:1022C00026222722F00E2424186E7F0E2520196E58
:1022D000000E26201A6E000E27201B6E000E1C6EAC
:1022E00052EC1CF02F6E280E186E000E196E000EA8
:1022F0001B6E080E1A6ED9EC1DF0306E280E196E8A
:10230000000E1A6E000E1C6E090E1B6E8BEC1FF079
:1023100012002F500001606F616B0C0ED890603777
:102320006137E82EFBD760C062F061C063F0625194
:102330002D1263512E12D89001013635D96E3735E2
:10234000DA6E3C0ED926010EDA222DC0DEFF2EC039
:10235000DDFF364B372B36C160F037C161F0D890C6
:10236000000160376137615104E1400E605DD8A023
:102370001200FEEC21F00009D8B412003EC01DF09E
:102380003FC01EF040C01FF041C020F03C0E216E47
:10239000010E226EDDEC16F0400E3E26000E3F22AE
:1023A000402241224150401006E1F00E3E5C7F0E7B
:1023B0003F58D8A01AD0800E3E6E450E3F6E000EDC
:1023C000406E000E416E010E01013A6F800EC81979
:1023D0000CE1450EC919CA11CB11D8A406D0400E84
:1023E000C827000EC923CA23CB23170E0101305D75
:1023F000FF0E3159FF0E3259FF0E3359D8B006D0B7
:10240000010E3027000E312332233323000E376FA5
:10241000000E366F12007AC07CF000017D6B7E6B7F
:1024200079357C3701E37D817C51866F8651D8A454
:1024300009D0000E786F000E796F000E7A6F000ED3
:102440007B6F1200170E7C6F78C07DF079C07EF034
:102450007AC07FF07C29806F04D0D8907F337E33A0
:102460007D33802FFAD700017D51816F798FFF0E68
:102470007817FF0E7917000E7A177851826F79510D
:10248000836F7A51846F856B8E0E865F86AF16D010
:102490008651800A8F0FD8B009D0000E786F000ED9
:1024A000796F000E7A6F000E7B6F1200D890853323
:1024B000843383338233863FF9D715D0170E866570
:1024C0000FD0000E786F000E796F000E7A6F000E3D
:1024D0007B6F1200D8908237833784378537860721
:1024E0008651D8A4F7D78151D8B408D0851F841F4E
:1024F000831F826D000E83238423852382C078F09E
:1025000083C079F084C07AF085C07BF012006BC084
:102510006FF00001706B716B6A356F3701E370818A
:102520006F51726F7251D8A407D0000E696F000E00
:102530006A6F000E6B6F12006EC06FF0706B716B84
:102540006D356F3701E370816F51776F7751D8A484
:1025500007D0000E696F000E6A6F000E6B6F1200DD
:1025600077517B0F72276BC077F06E51771B800E0F
:1025700077176A8F6D8FFF0E6C17FF0E6D17000EA9
:102580006E17000E736F000E746F000E756F070EDE
:10259000766F69A106D06C5173276D5174236E510B
:1025A0007523D8906B336A336933D8906C376D37A5
:1025B0006E37762FEED7090E766F69A106D06C5173
:1025C00073276D5174236E517523D8906B336A3322
:1025D0006933D890753374337333762FEED773C065
:1025E00018F074C019F075C01AF072C01BF077C0F3
:1025F0001CF092EC17F018C069F019C06AF01AC00C
:102600006BF012002BC060F00001616B626B2A342A
:10261000603701E361816051676F6751D8A407D0CB
:10262000000E296E000E2A6E000E2B6E12002EC0B8
:1026300060F0616B626B2D34603701E36181605142
:10264000686F6851D8A407D0000E296E000E2A6E5C
:10265000000E2B6E1200000E646F000E656F000EF0
:10266000666F6851890F675F2BC068F02E50681B3A
:10267000800E68172A8EFF0E2916FF0E2A16000EEE
:102680002B162D8EFF0E2C16FF0E2D16000E2E165D
:10269000180E636FD8906437653766372C50295C05
:1026A0002D502A582E502B58D8A007D02C50295ED8
:1026B0002D502A5A2E502B5A6481D89029362A360A
:1026C0002B36632FE7D764C018F065C019F066C0D9
:1026D0001AF067C01BF068C01CF092EC17F018C02D
:1026E00029F019C02AF01AC02BF01200240E0001A4
:1026F000606F020E616F210E626F040E636F28C15E
:1027000069F029C16AF02AC16BF02BC16CF0000E90
:102710006E6F000E6D6F6EBF06D06E5142E1040EFB
:102720006D5DD8B03ED0040E6D25256E000E6E2175
:10273000266E600E2524D96E000E2620DA6E69C042
:1027400018F06AC019F06BC01AF06CC01BF00A0ECA
:102750001C6E000E1D6E000E1E6E000E1F6E8FECA6
:102760001BF01850DF6E69C018F06AC019F06BC01A
:102770001AF06CC01BF00A0E1C6E000E1D6E000ECF
:102780001E6E000E1F6EB9EC19F018C069F019C06A
:102790006AF01AC06BF01BC06CF000016D4B6E2B21
:1027A000BAD7600E186E000E196E000E1B6E080E62
:1027B0001A6ED9EC1DF00001686F600E196E000EE4
:1027C0001A6E000E1C6E090E1B6E8BEC1FF01200B1
:1027D000000E0001CC6F000ECD6FD10E206E000EEA
:1027E000216E000E236E070E226E58EC21F0240E8F
:1027F0000001D16F060ED26F620ED36F020ED46F3E
:10280000C8C0D9FFC9C0DAFFDF50D06F000EB26F69
:10281000020EB16FD051010D530EF324F66E060E69
:10282000F420F76E0800F550400970EC10F0B1C0CC
:10283000CEF0B2C0CFF0000E0001D96F000ED86FFD
:10284000D9BF06D0D9511FE1020ED85DD8B01BD038
:10285000040ED825CA6F000ED921CB6FD10ECA2520
:10286000D96E000ECB21DA6ECEC018F0CFC019F0B1
:102870001A6A1B6AD8C01CF052EC1CF0DF6E000113
:10288000D84BD92BDDD7D10E186E000E196E000E65
:102890001B6E060E1A6ED9EC1DF00001D76FD10E1B
:1028A000196E000E1A6E000E1C6E070E1B6E8BEC5E
:1028B0001FF01200000E0001CC6FCC51800A7C0F7B
:1028C000D8B01200000EB26F020EB16FCC51010DE4
:1028D000530EF324F66E060EF420F76E0800F55042
:1028E000400970EC10F0B1C0CAF0B2C0CBF00001EA
:1028F000CA2944E1CB29D8A441D0CC51020D4B0EBA
:10290000F324F66E060EF420F76E0900F5CFC8F03A
:102910000900F5CFC9F0C8C029F0C9C02AF02B6A58
:102920002C6A010E2D6E020E3FEC18F00001CC5106
:10293000020D4B0EF324F66E060EF420F76E09001E
:10294000F5CFC8F00900F5CFC9F0C8C021F0C9C063
:1029500022F0236A246ACC51010D530EF324F66E43
:10296000060EF420F76E0800F5504009256E000EA3
:10297000276E020E266E37EC1FF00BD0CAC029F06E
:10298000CBC02AF02B6A2C6A010E2D6E020E3FEC92
:1029900018F00001CC2B91D78FC018F090C019F01F
:1029A00091C01AF0950E1B6E000E1C6EE3EC18F031
:1029B000000196AF10D091AF07D0000E8F6F800E40
:1029C000906FBF0E916F1200000E8F6F000E906F10
:1029D000000E916F1200965104E1150E955DD8A07E
:1029E00007D08FC08FF090C090F091C091F012008E
:1029F0008FC078F090C079F091C07AF00BEC12F0B3
:102A000078C087F079C088F07AC089F07BC08AF0FE
:102A100077EC1AF087C092F088C093F089C094F0E8
:102A20008FC018F090C019F091C01AF092C01BF03E
:102A300093C01CF094C01DF02BEC19F0D8B016D048
:102A400092C078F093C079F094C07AF0000E000143
:102A50007B6F800E7C6FBF0E7D6FBFEC0CF078C07B
:102A60008FF079C090F07AC091F0120092C08FF090
:102A700093C090F094C091F0120083B81ED04350E0
:102A8000800A7F0FD8A005D0010EA3EC06F0430604
:102A900003D0030EF4EC1BF038C018F0196A000ED6
:102AA0001B6E0C0E1A6EEEEC1AF0B00E1824D96ED6
:102AB000010E1920DA6E000E12D0020E436E38C0DD
:102AC00018F0196A000E1B6E0C0E1A6EEEEC1AF05E
:102AD000B00E1824D96E010E1920DA6E010EDF6EC9
:102AE000382A83B220D04250800A7F0FD8A005D068
:102AF000000EA3EC06F0420603D0040EF4EC1BF02B
:102B000037C018F0196A000E1B6E0C0E1A6EEEEC30
:102B10001AF0A40E1824D96E010E1920DA6E000ED8
:102B2000DF6E372A1200020E426E37C018F0196AA3
:102B3000000E1B6E0C0E1A6EEEEC1AF0A40E18248A
:102B4000D96E010E1920DA6E010EDF6E372A1200DF
:102B500089C018F08AC019F0000E1B6E030E1A6EA1
:102B6000BFEC20F087C02FF088C030F018502F261F
:102B7000195030222FC0F6FF30C0F7FF0900F5CF03
:102B80008BF00900F5CF8CF00A00F5CF8DF03FD027
:102B90008BC06CF08CC06DF08DC06EF084C069F09D
:102BA00085C06AF086C06BF087EC12F069C078F0DF
:102BB0006AC079F06BC07AF0000E1B6E030E1A6EBD
:102BC00000018907D8A08A0789C018F08AC019F0C7
:102BD000BFEC20F087C02FF088C030F018502F26AF
:102BE000195030222FC0F6FF30C0F7FF0900F5CF93
:102BF0007BF00900F5CF7CF00A00F5CF7DF0BFEC4B
:102C00000CF078C08BF079C08CF07AC08DF00001A8
:102C100089518A11D8A4BCD78BC084F08CC085F0B0
:102C20008DC086F0120000018E518F119011D8A432
:102C300007D0000E8E6F000E8F6F000E906F120087
:102C400090517F0B936F946BD89093379437935137
:102C50009127945192238FAF03D0936B932B02D083
:102C60000001936B93519127000E922392AF0DD0E8
:102C7000000E0101356F220E346F000E00018E6FC1
:102C8000000E8F6F000E906F120092BF17D092054A
:102C9000D8A014D0000E0101356F220E346F000150
:102CA00090AF06D0FF0E8E6F7F0E8F6FFF0EEBD7AB
:102CB000FF0E8E6F7F0E8F6F7F0EE5D792359231AC
:102CC000946F9131936F90519319800B9319906F7A
:102CD00091C093F0010E9317933393338F5193194F
:102CE0007F0B93198F6F8EC08EF08FC08FF090C0C6
:102CF00090F012000001856F010E0001806F000E40
:102D0000816F000E826F000E836F600E206E000ECA
:102D1000216E000E236E200E226E000E246E75ECC6
:102D200021F0600E186E000E196E25C01AF026C034
:102D30001BF027C01CF028C01DF0AEEC1CF0000EEC
:102D40000001846F1F0E846501D026D0000E186E1E
:102D5000855131EC1DF000018451010D600EF3240A
:102D6000D96E000EF420DA6EDF50D8B406D0010E12
:102D7000186E855106EC1DF006D0000E186E00018D
:102D8000855106EC1DF0010E186E0001855131ECE5
:102D90001DF00001842BD6D7210EE82EFED700F0BF
:102DA000000E186E0001855106EC1DF0000E186E25
:102DB0000001855131EC1DF01200C00E236E7F0E14
:102DC000246E1DC025F01EC026F023502516245069
:102DD000261625C027F026C028F0296A2A6A000E88
:102DE000F2BE010E2B6E27501D1844E128501E180C
:102DF00041E129501F183EE12A502018D8A41200A2
:102E00001DC018F01EC019F01FC01AF020C01BF022
:102E1000F5EC1FF01FC0F8FF1EC0F7FF1DC0F6FF46
:102E2000000E2C6E3F0E2C6401D013D02C50010DDF
:102E3000F3502124D96EF4502220DA6EDF50F56E63
:102E40003F0E2C18D8A402D00C0001D00D002C2A63
:102E5000E9D7A188A68EA69CA684F29E550EA76EE1
:102E6000AA0EA76EA682A6942BB002D0F29E01D025
:102E7000F28E12001200E00E2C6EFF0E2D6E460E2A
:102E80002E6E3EC078F03FC079F040C07AF041C06D
:102E90007BF00001781F791F7A1F7B1F782B000EB3
:102EA00079237A237B23F00E7825206E7F0E7921FB
:102EB000216E000E7A21226E000E7B21236E80ECA3
:102EC0001CF020C029F021C02AF022C02BF002EC17
:102ED00013F029C069F02AC06AF02BC06BF0000E15
:102EE00000016C6FC80E6D6F420E6E6F87EC12F0B2
:102EF00069C07CF06AC07DF06BC07EF0000E186E79
:102F0000960E196E420E1A6E7CC01BF07DC01CF02E
:102F10007EC01DF02BEC19F0D8B002D0010E1200CB
:102F2000000E12001B50D8B405D0185019101A10FA
:102F3000D8A40CD0000E186E000E196E000E1A6E7A
:102F400012001B2AD8901A3219321832000E1814A7
:102F50001D6E000E19141E6EFE0E1A141F6E1D50EB
:102F60001E101F10D8B40CD0ECD71B2A010E182647
:102F7000000E1922000E1A22D8901A321932183275
:102F8000000E18141D6E000E19141E6EFF0E1A147A
:102F90001F6E1D501E101F10D8B406D0E6D71B069A
:102FA000D890183619361A3619BE03D0020E1B6097
:102FB000F6D71BA0199ED8901B321B501A121C501A
:102FC000D8A41A8E18C018F019C019F01AC01AF037
:102FD0001200F2944750D76E46C0D6FF314A322ACB
:102FE00031C001F032C002F0000E046EFA0E036E22
:102FF00065EC1EF001500210D8A403D0010E0001B0
:10300000FA6F31C001F032C002F0030E046E200EE0
:10301000036E65EC1EF001500210D8A403D0010E1F
:103020000001F96F31C001F032C002F0010E046EF0
:103030005E0E036E65EC1EF001500210D8A403D0A2
:10304000010E0001F86F31C001F032C002F0000E35
:10305000046E0A0E036E65EC1EF001500210D8A437
:1030600003D0010E0001F76FB80E315C880E3258A4
:10307000D8A01200000E326E000E316E1200000158
:10308000896FF29E00018951D8B403D08905D8A474
:1030900018D0000E186E8951E1EC1EF029C025F001
:1030A0002AC026F02BC027F02CC028F0000189513F
:1030B0007AEC16F0010E186E00018951E1EC1EF059
:1030C00031D0020E00018919D8A42CD0000E67EC73
:1030D00021F0010E2D240001876F886B000E8823DC
:1030E00088BF1DD0885103E18705D8A018D029C01A
:1030F00018F02AC019F02BC01AF02CC01BF087055D
:103100001C6E52EC1CF00001866F86C01AF08951CB
:10311000DAEC1CF000018707D8A08807E1D7010E80
:1031200067EC21F0F28E12008AC066F08BC067F067
:10313000100E1DEC0FF020EE91F0070EEBCFDBFF31
:10314000E806FCE291C029F092C02AF093C02BF06F
:1031500094C02CF0010E2D6E020E3FEC18F091C0C1
:103160008CF092C08DF093C08EF094C08FF00F0E53
:1031700006D00001D8908F338E338D338C33E82EF8
:10318000F8D78C51906F91C021F092C022F093C07B
:1031900023F094C024F09051010D530EF324F66EE9
:1031A000060EF420F76E0800F5504009256E000E5B
:1031B000276E020E266E37EC1FF0610E246E060E8F
:1031C000B0EC1DF01200185019101A10D8A40FD02E
:1031D0001BC0D9FF1CC0DAFF000EDE6E000EDD6ED4
:1031E000000E186E000E196E000E1A6E12001A50A4
:1031F0007F0B1D6E1E6AD8901D361E361BC0D9FF70
:103200001CC0DAFF1DC0DEFF1EC0DDFF19AE03D0FB
:103210001D6A1D2A01D01D6A1D501BC0D9FF1CC08C
:10322000DAFFDE12000EDD121BC0D9FF1CC0DAFF70
:10323000820EDE26FF0EDD221A801A821A841A867A
:103240001A881A8A1A9C199E18C018F019C019F009
:103250001AC01AF012001AAE16D018C01EF019C00B
:103260001FF01AC020F01E1E1F1E201E1E2A000E58
:103270001F222022000E1E24186E000E1F20196E21
:10328000800E20201A6E1DAE16D01BC01EF01CC072
:103290001FF01DC020F01E1E1F1E201E1E2A000E25
:1032A0001F222022000E1E241B6E000E1F201C6EEB
:1032B000800E20201D6E000E181A000E191A800EA6
:1032C0001A1A000E1B1A000E1C1A800E1D1A1B5013
:1032D000185C1C5019581D501A58D8B002D0D890FC
:1032E0001200D88012000001E86F28D0E6C08AF0F2
:1032F000E7C08BF0000E96EC0DF01200E6C08AF0ED
:10330000E7C08BF0010E96EC0DF01200010E39ECC7
:103310001AF01200000E39EC1AF01200E6C0C8F0E4
:10332000E7C0C9F0010E4BEC05F01200E6C0C8F092
:10333000E7C0C9F0000E4BEC05F012000001E851A7
:10334000400AD8B41200010AD8B41200030AD8B453
:10335000CDD7010AD8B4D2D7070AD8B4D7D7010A33
:10336000D8B4D8D7030AD8B4D9D7010AD8A4120040
:10337000DDD7000E206E000E216E000E226E000EB4
:10338000236E1C501D101E101F10D8B42AD0010E21
:10339000246E06D0D8901C361D361E361F36242AC1
:1033A0001FAEF8D7D89020362136223623361C504F
:1033B000185C1D5019581E501A581F501B58D8A081
:1033C00009D01C50185E1D50195A1E501A5A1F5011
:1033D0001B5A2080D8901F321E321D321C32242EE0
:1033E000E1D720C018F021C019F022C01AF023C084
:1033F0001BF01200B20EF66E430EF76E000EF86E62
:1034000001EEBCF010EE10F00900F5CFEEFFE55034
:10341000E150FAE1540EF66E440EF76E000EF86EAF
:1034200000EE3EF010EE08F00900F5CFEEFFE5509B
:10343000E150FAE102EE00F0460EEE6AE806FDE128
:1034400001EE00F0BC0EEE6AE806FDE100EEF0F0E1
:103450000B0EEE6AE806FDE100EE31F00D0EEE6AAD
:10346000E806FDE148904892000EF86E0001B4EFC6
:103470001AF00001CF6F0001CF51D8A41AD04550E7
:10348000D8A402D0010E01D0000E456E4550D8B42C
:1034900004D0CF51A3EC06F006D0000E186E000148
:1034A000CF51C3EC1EF0450E246E040EB0EC1DF09F
:1034B00012000001CF05D8A412004450D8A402D0B5
:1034C000010E01D0000E446E4450D8B404D0CF5148
:1034D000A3EC06F006D0000E186E0001CF51C3EC2D
:1034E0001EF0440E246E040EB0EC1DF01200000E0F
:1034F000306E8E0E2F6E00018AAF11D08A1F891F89
:10350000881F876D000E882389238A23010E306E61
:1035100006D0D8908A338933883387332F2A000E18
:1035200087158B6F000E88158C6F000E89158D6FB7
:10353000FF0E8A158E6F8B518C118D118E11D8A4B0
:10354000E8D787C018F088C019F089C01AF02FC0DA
:103550001BF030C01CF092EC17F018C087F019C0B7
:1035600088F01AC089F0120011EC22F0A7EC21F0CB
:103570000BEC22F0030E23EC1CF0E3EC0AF000014C
:10358000F705D8A406D022EC1EF0000E0001F76F5C
:10359000F4D7F905D8A410D090EC21F03BEC17F04B
:1035A000E806D8A403D0020EF4EC1BF0DEEC07F022
:1035B000000E0001F96FE1D7F805D8A406D005EC9C
:1035C00022F0000E0001F86FD8D7FA05D8A4D5D79D
:1035D0003DEC15F0000E0001FA6FCFD7000E1D6E06
:1035E00019AE06D0186C191ED8B0192A010E1D6E1E
:1035F0001BAE04D01A6C1B1ED8B01B2A1A501B100D
:10360000D8B418D0010E1C6E04D0D8901A361B36D0
:103610001C2A1BAEFAD71A50185C1B501958D8A098
:1036200004D01A50185E1B50195AD8901B321A3207
:103630001C2EF1D71D50D8B404D0186C191ED8B068
:10364000192A18C018F019C019F01200000E2E6EB9
:10365000000E2D6E2EBE06D02E5027E10A0E2D5CD8
:10366000D8B023D08B80820E2C6EDE0EE82EFED7D3
:103670002C2EFCD78A88820E2C6EDE0EE82EFED70A
:103680002C2EFCD78B90820E2C6EDE0EE82EFED7F1
:103690002C2EFCD78A98820E2C6EDE0EE82EFED7DA
:1036A0002C2EFCD72D4A2E2AD5D7140E246E010EAF
:1036B000B0EC1DF01200000E206E000E1F6E000E0A
:1036C000226E000E216E1CD021501824D96E22507B
:1036D0001920DA6EDF50D8B411D021C01CF0010ED1
:1036E0001D6E000E1E6E1C2A03D0D8901D361E368D
:1036F0001C2EFBD71D501F121E502012214A222AB9
:103700001A50215C2250800A1C6E1B50800A1C58E3
:10371000D8A0DAD71FC018F020C019F012001C5032
:103720001D101E101F10D8B424D0010E206E06D01C
:10373000D8901C361D361E361F36202A1FAEF8D7ED
:103740001C50185C1D5019581E501A581F501B58F9
:10375000D8A008D01C50185E1D50195A1E501A5A75
:103760001F501B5AD8901F321E321D321C32202E81
:10377000E7D718C018F019C019F01AC01AF01BC00A
:103780001BF01200000E8D6E000E8C6E060E896E00
:10379000000E8A6E000E8B6E070E966EE10E926E14
:1037A000EF0E936E800E946EF20E956E340E0F0136
:1037B0003A6F3E0E396FE40E3B6F070E3C6F2F0ED3
:1037C000386FC30E616EF19E6288628A700E186E49
:1037D000440E196E20EC22F06E0E186E440E196E17
:1037E0001BEC22F0F28612001B6E000E1D6E000E06
:1037F0001C6E1B50186E196A18501C5C1D50800AF4
:103800001A6E1950800A1A58D8B012008A98020EFF
:10381000196E040E186EBA0EE82EFED7182EFCD7BD
:10382000192EFAD700D08A88020E196E040E186E6F
:10383000BA0EE82EFED7182EFCD7192EFAD700D0D4
:103840001C4A1D2AD6D71B6E000E1D6E000E1C6E64
:103850001B50186E196A18501C5C1D50800A1A6E95
:103860001950800A1A58D8B012008B90020E196EA7
:10387000040E186EBA0EE82EFED7182EFCD7192E9D
:10388000FAD700D08B80020E196E040E186EBA0E95
:10389000E82EFED7182EFCD7192EFAD700D01C4AD6
:1038A0001D2AD6D71FD018501200195012001A50D6
:1038B0001200000E18141D6E000E19141E6E000E5C
:1038C0001A141F6EFF0E1B14206E190E05D0D8900F
:1038D00020321F321E321D32E82EF9D71D50120041
:1038E000000E12001C50000AD8B4DDD7010AD8B46B
:1038F000DCD7030AD8B4DBD7010AD8B4DAD7F0D7BB
:103900008E0E286E06D0D8902332223221322032F9
:10391000282A000E2014246E000E2114256E000E9D
:103920002214266EFF0E2314276E24502510261015
:103930002710D8A4E8D720C018F021C019F022C061
:103940001AF028C01BF0000E1C6E92EC17F018C085
:1039500020F019C021F01AC022F01200000E216ED2
:10396000000E206E21BE06D0215023E1210E205CE6
:10397000D8B01200010E20241E6E000E21201F6EF2
:103980001E1E1F1E1E4A1F2A200E1E26000E1F224C
:103990001E501824D96E1F501920DA6E1A50010BD0
:1039A000DF6ED8901D321C321B321A32204A212A77
:1039B000D9D712001C6E080E1B6E1AD0010E186E9D
:1039C0001C5031EC1DF01AAE06D0010E186E1C50C2
:1039D00006EC1DF005D0000E186E1C5006EC1DF014
:1039E000000E186E1C5031EC1DF01B06D8901A36D4
:1039F0001B50D8A4E3D7000E186E1C5006EC1DF027
:103A0000000E186E1C5031EC1DF01200196E1ED005
:103A10001804D8A402D08C8012001850D8A4120028
:103A20008C9012001804D8A402D08B8A120018506F
:103A3000D8A412008B9A12001804D8A402D0898846
:103A400012001850D8A41200899812001950000AC8
:103A5000D8B4DED7010AD8B4E5D7030AD8A4120037
:103A6000EBD7196E1ED01804D8A402D08B86120092
:103A70001850D8A412008B9612001804D8A402D0B3
:103A80008B8812001850D8A412008B9812001804CA
:103A9000D8A402D0898612001850D8A412008996A2
:103AA00012001950000AD8B4DED7010AD8B4E5D7FD
:103AB000030AD8A41200EBD7000E226E000E236E6C
:103AC000000E246E000E256E1AA008D01E5022266D
:103AD0001F5023222050242221502522D8901E3608
:103AE0001F3620362136D8901D321C321B321A3236
:103AF0001A501B101C101D10D8A4E6D722C01AF0B3
:103B000023C01BF024C01CF025C01DF01200800E45
:103B10003E6E450E3F6E000E406E000E416E800EF2
:103B20000101C86F450EC96F000ECA6F000ECB6F42
:103B3000000E306F000E316F000E326F000E336FCB
:103B40003C0E206E010E216E000E236E200E226EA2
:103B500058EC21F0510E246E050EB0EC1DF0120051
:103B6000256E260E206E000E216E000E236E060EB0
:103B7000226E58EC21F0240E266E25C027F024C0BA
:103B800028F0000E296E260E186E000E196E000E1B
:103B90001B6E050E1A6ED9EC1DF02B6E260E196EDB
:103BA000000E1A6E000E1C6E060E1B6E8BEC1FF0C4
:103BB0001200000E1E6E000E1D6E000E206E000E16
:103BC0001F6E0ED01F501824D96E20501920DA6EA7
:103BD000DF501C6E1C501D26000E1E221F4A202A7C
:103BE0001A501F5C2050800A1C6E1B50800A1C5803
:103BF000D8A0E8D7FF0E1D16000E1E161D5012008D
:103C0000000E1A6E000E196E0001F551D8A402D0F4
:103C1000195012003350010D000EF324D96E010E1D
:103C2000F420DA6EDF50186E1850196E1A6A332AB3
:103C3000270E336402D0000E336E9D9AF5079D8ADD
:103C400019501200010E01012827000E29232A23F2
:103C50002B2328C118F029C119F02AC11AF02BC151
:103C60001BF0800E1C6E430E1D6E000E1E6E000EAD
:103C70001F6E8FEC1BF018C028F119C029F11AC073
:103C80002AF11BC02BF11200000187518811891104
:103C9000D8B406D0000E871B000E881B800E891B2F
:103CA00084C078F085C079F086C07AF087C07BF058
:103CB00088C07CF089C07DF0BFEC0CF078C084F047
:103CC00079C085F07AC086F0120003500410D8B491
:103CD00018D0010E056E04D0D89003360436052A9C
:103CE00004AEFAD70350015C04500258D8A004D0A7
:103CF0000350015E0450025AD89004320332052E5C
:103D0000F1D701C001F002C002F01200000EA3ECD6
:103D100006F0010EA3EC06F0B00E206E010E216E2F
:103D2000000E236E0C0E226E000E246E75EC21F038
:103D3000A40E206E010E216E000E236E0C0E226E5C
:103D4000000E246E75EC21F01200186E0101D251A4
:103D5000D8B4FCD79DB803D018C0ADFF12D09D9841
:103D60003650010D000EF324D96E020EF420DA6EE7
:103D700018C0DFFF362A450E366402D0000E366EBC
:103D8000D2079D881200196E14D01804D8A402D04E
:103D90008B8212001850D8A412008B9212001804C3
:103DA000D8A402D08C8412001850D8A412008C948D
:103DB00012001950000AD8B4E8D7010AD8A412009A
:103DC000EED7196E14D01804D8A402D08B84120038
:103DD0001850D8A412008B9412001804D8A402D052
:103DE0008C8612001850D8A412008C96120019501C
:103DF000000AD8B4E8D7010AD8A41200EED700010F
:103E0000E86F0DD087EC1DF0120003EC11F01200EA
:103E1000E6C087F0E7C088F0ECEC08F01200000183
:103E2000E851510AD8B4EED7030AD8B4EED7010A44
:103E3000D8A41200EDD79D9A9D98080EB86E900EEA
:103E4000AB6E240EAC6E100EAF6E000EB06E000E98
:103E5000366E000E356E460E0101D26F000E346EC6
:103E6000000E336E000E0001F56F9D8A120026C011
:103E700029F015D021C018F022C019F023C01AF083
:103E800024C01BF029041C6E52EC1CF0286E28C0C4
:103E90001BF0295000082524F7EC21F029062950B1
:103EA000D8B41200E7D7000E236E21AE06D0206CE6
:103EB000211ED8B0212A010E236E20C018F021C087
:103EC00019F01A6A8E0E1B6E23C01CF092EC17F0CC
:103ED00018C020F019C021F01AC022F01200460EBE
:103EE0000101D26112D03550010D000EF324D96EBC
:103EF000020EF420DA6EDF50AD6E352A450E3564C1
:103F000002D0000E356ED22B12009D98000E356E39
:103F1000000E366E1200000E1F6E000E1E6E0BD0CD
:103F20001E501924D96E1F501A20DA6EDF50A5ECEE
:103F30001EF01E4A1F2A1B501E5C1F50800A1D6E59
:103F40001C50800A1D58D8B01200EAD7196E000E16
:103F5000F2BE010E1A6E19C0A9FF18C0A8FFA69ED6
:103F6000A69CA684F29E550EA76EAA0EA76EA682E8
:103F7000A6B2FED7A6941AB002D0F29E01D0F28E5D
:103F800012000001E86F0ED0E6C08AF0E7C08BF0A7
:103F900094EC18F01200E6C0C8F0E7C0C9F0E8ECF5
:103FA00013F012000001E851610AD8B4EDD7030AFA
:103FB000D8A41200F0D7F80ED76E2F0ED66ED650BA
:103FC000D7CF1AF01B6A1AC01BF01A6A1A10466E75
:103FD0001B50476EF294F28A000E186E000E196E96
:103FE00016EC22F0900ED56E1200000EF2BE010EFD
:103FF0001C6E1AC0F8FF19C0F7FF18C0F6FFA68E96
:10400000A69CA684A688F29E550EA76EAA0EA76E41
:10401000A6821CB002D0F29E01D0F28E12000001E6
:10402000E96F06D026EC1BF01200E9EC21F012003B
:104030000001E951110AD8B4F8D7030AD8B4120024
:10404000010AD8B41200070AD8A41200EBD72CC07A
:10405000D9FF2DC0DAFFDF503D6E3D04D8A409D052
:1040600020EE01F02C50D9262D50DA22DF5000012D
:10407000F66F320E246E030EB0EC1DF012001C6EB3
:104080001CC01AF01A461A46C2501A18830B1A1886
:10409000C26EC280C282C2B2FED7C4501B6E1A6A00
:1040A000C3501A24186E000E1B20196E1200ABA20A
:1040B00002D0AB98AB883450010D000EF324D96EBA
:1040C000010EF420DA6EAECFDFFF342A270E3464FF
:1040D00002D0000E346E0001F52B120018C01EF045
:1040E00019C01FF008D01EC0D9FF1FC0DAFF1AC0C8
:1040F000DFFF1E4A1F2A1C06D8A01D061C28F3E15C
:104100001D28D8B41200EFD7000E0001F16F000E89
:104110003C6E000E3B6E000EF06F900E206E010E96
:10412000216E000E236E140E226E58EC21F0120048
:104130001D6E010E1C6E7B0E1D6003D0610E1D6096
:1041400007D01D5049EC21F0D8B002D0000E1C6EF3
:104150001CC01BF01B3012001A6E010E196E200ECF
:104160001A18D8B408D00E0E1A6003D0090E1A60BF
:1041700002D0000E196E19C018F018301200185035
:104180001A02F3CF1CF0F4CF1DF018501B02F350AD
:104190001D2619501A02F3501D261CC018F01DC010
:1041A00019F012000001E96F06D053EC03F0120081
:1041B00076EC13F012000001E951210AD8B4F8D7C7
:1041C000030AD8A41200F1D7185019101A10D8B445
:1041D00006D0000E181A000E191A800E1A1A18C0EE
:1041E00018F019C019F01AC01AF0120020C018F007
:1041F00021C019F01A6A8E0E1B6E000E1C6E92EC16
:1042000017F018C020F019C021F01AC022F01200D7
:104210000101CE51CF11D8B4120001D8120005000F
:10422000FA6ECE51FD6ECF51FE6EF850FF6EFA5011
:1042300012000101D051D111D8B4120001D81200DE
:104240000500FA6ED051FD6ED151FE6EF850FF6E32
:10425000FA5012000001E86F07D0E6C02CF0E7C06A
:104260002DF027EC20F012000001E851320AD8A40A
:104270001200F3D71A6E000E196E3A0E1A6005D0AE
:104280002F0E1A6402D0010E196E19C018F01830E2
:1042900012001A6E000E196E5B0E1A6005D0400EE9
:1042A0001A6402D0010E196E19C018F018301200ED
:1042B00020C018F021C019F0000E1B6E000E1A6EFF
:1042C00022C01CF023C01DF06EEC20F01200186E0E
:1042D00004D089941200898412001850000AD8B4BE
:1042E000F8D7010AD8A41200F6D720C018F021C0D0
:1042F00019F024C01AF01B6A22C01CF023C01DF064
:104300006EEC20F0120031EC22F0C2EC1BF0F0EC6D
:1043100021F0DBEC1FF09CEC21F01BEC1FF01200F5
:104320008BB003D0186A182A01D0186A8B5018185D
:10433000FE0B18188B6E1200050EC26E000EC16EB9
:10434000870EC06E000EC36E000EC46E12002EECFF
:1043500022F033EC22F086EC1EF0C6EC21F05AEC91
:1043600014F01200186E7B0E186004D0600E1864F2
:1043700001D0189A18501200186E18C0A9FFA69CF8
:10438000A69EA68000F000F0A8501200000E0101C9
:10439000286F000E296F000E2A6F000E2B6F12007F
:1043A0001AC0F8FF19C0F7FF18C0F6FF0800F55053
:1043B00012001E40A4415442E632FE3D823F804539
:1043C000000062B819EC21F062BA08EC21F0F2901A
:1043D0001200110E246E010EB0EC1DF0FF00120051
:1043E000600ED36E040ED26E800E9B6E12001C6E99
:1043F0001BC018F01C50A6EC1FF01200A6A201D0A2
:1044000002D0010E1200000E1200150E246E010ED5
:10441000B0EC1DF01200100E246E010EB0EC1DF079
:10442000120083EC21F0F28EF28C120018C0CCF155
:1044300019C0CDF1120018C0CEF119C0CFF1120091
:1044400018C0D0F119C0D1F11200196E1950BCEC8E
:1044500021F012008045000002020101000E3D6EB5
:104460001200D09E1200D58E1200A19812001200E8
:02447000120038
:020000040020DA
:08000000FFFFFFFFFFFFFFFF00
:020000040030CA
:0E000000FF281838FFBF80FF0FC00FE00F4031
:00000001FF
