:040000006EEF00F0AF
:100008004882FACF06F0FBCF07F0E9CF08F0EACF35
:1000180009F0E1CF0AF0E2CF0BF0D9CF0CF0DACF3C
:100028000DF0F3CF0EF0F4CF0FF0F6CF10F0F7CFBE
:1000380011F0F8CF12F0F5CF13F048C014F049C012
:1000480015F04AC016F04BC017F0F2B6F2A003D074
:1000580019EC18F019D0F2BAF2A403D00BEC10F096
:1000680013D0F2AC11D0A0B8A1A803D01BEC18F0A3
:100078000BD09DB89EA803D057EC15F005D09DBABB
:100088009EAA02D08DEC16F017C04BF016C04AF0AD
:1000980015C049F014C048F013C0F5FF12C0F8FFAE
:1000A80011C0F7FF10C0F6FF0FC0F4FF0EC0F3FF3A
:1000B8000DC0DAFF0CC0D9FF0BC0E2FF0AC0E1FF98
:1000C80009C0EAFF08C0E9FF07C0FBFF06C0FAFF46
:0800D80048921100EBEF11F05A
:100600000002600B00000000002100000003000059
:10061000002300B848080052005310026745230128
:100620000045230100452301004523010045230126
:100630000007060504190A0D00803F72313FFE7560
:100640003E58633D951D3CC5AE3A792139948037BB
:1006500093A73556153400000000803FF0FFBEE23E
:10066000A93E8376BEAE2B3E3CC3BDD2133D78D3AC
:10067000BB00000E0001BA6F000EB96F000EBE6F16
:10068000000EBD6F6C0E206E000E216E000E236EEC
:10069000450E226E5DEC17F0DCEC17F00009D8B4C3
:1006A00012003E503F1040104110D8B4EED03150EF
:1006B000321033103410D8B49AD024C060F025C062
:1006C00061F0000E000161BFFF0E626F636F315079
:1006D000605D325061593350625934506359D8B01B
:1006E00002D0010E01D0000E646F656B666B676B04
:1006F000641F651F661F671F642B000E652366233A
:10070000672331506425686F32506521696F33501B
:1007100066216A6F345067216B6F685169116A11E5
:100720006B11D8A40AD024C0B1F025C0B2F0000EDD
:10073000B2BFFF0EB36FB46F08D031C0B1F032C09A
:10074000B2F033C0B3F034C0B4F0B1C0BDF0B2C049
:10075000BEF0BEAF91D0BDC018F0BEC019F0CEEC57
:1007600016F018C060F019C061F0000E000161BF02
:10077000FF0E626F636F60513E5C61513F58625182
:10078000405863514158D8B016D03E50BD25606FD7
:100790003F50BE21616F60512426615125223EC029
:1007A00060F03FC061F0601F611F604B612B60C053
:1007B000BDF061C0BEF0BDC060F0BEC061F0060E0D
:1007C000D89060376137E82EFBD760C062F061C017
:1007D00063F0000E63BFFF0E646F656F6251F62712
:1007E0006351F7236451F8236551F92345D024C0A0
:1007F00060F025C061F0000E000161BFFF0E626F66
:10080000636F3E50605D3F506159405062594150A6
:100810006359D8A009D03EC0B5F03FC0B6F040C083
:10082000B7F041C0B8F009D024C0B5F025C0B6F08B
:10083000000EB6BFFF0EB76FB86FB5C024F0B6C0DC
:1008400025F024C060F025C061F0060ED890603716
:100850006137E82EFBD760C062F061C063F0000E24
:1008600063BFFF0E646F656F6251F65F6351F75BA4
:100870006451F85B6551F95BF951F81138E1F605FF
:10088000400EF759D8B033D023D03B50D8B429D03C
:100890000001F651425CF7514358F8514458F95160
:1008A0004558D8A01ED0400E4224F66F000E4320BB
:1008B000F76F000E4420F86F000E4520F96FF951D4
:1008C000F81106E1F00EF65D7F0EF759D8A00FD0B3
:1008D000000EF66F400EF76F000EF86F000EF96F06
:1008E00006D03150321033103410D8B41200240E18
:1008F00000016C6F050E6D6F540E6E6F400E6F6FC2
:10090000000EBA6F000EB96F84D0000EBC6F000EDF
:10091000BB6FBCBF06D0BC512CE1400EBB5DD8B054
:1009200028D0040EBB25606F000EBC21616F6C0ED9
:100930006025D96E000E6121DA6EBBC062F0BCC0CA
:1009400063F0000E63BFFF0E646F656FF6516225A2
:10095000186EF7516321196EF85164211A6EF9511E
:1009600065211B6EAFEC17F0DF6E0001BB4BBC2B9B
:10097000D0D7400EF627000EF723F823F923F951BC
:10098000F81106E1F00EF65D7F0EF759D8A008D0F9
:10099000000EF66F400EF76F000EF86F000EF96F45
:1009A0006C0E186E000E196E000E1B6E440E1A6E41
:1009B000C7EC13F00001B06F6C0E196E000E1A6ECA
:1009C000000E1C6E450E1B6EC4EC15F0315032103B
:1009D00033103410D8B41AD03E04FF0E3F58FF0E27
:1009E0004058FF0E4158D8B006D0010E3E26000EEA
:1009F0003F22402241223150321033103410D8B4FB
:100A000005D03106000E325A335A345A0001B94B20
:100A1000BA2B2450B95DBA51800A606F2550800A04
:100A20006059D8B0120071D7000E0001CA6F000ED5
:100A3000C96F000EC86F000EC76F000EBA6F000EB0
:100A4000C46F000EC56F000EC66F000ECC6F000E97
:100A5000CB6FCCBF06D0CC5121E1050ECB5DD8B019
:100A60001DD0CB51B125D96ECC51B221DA6E2E0EEC
:100A7000DE18D8B410D0CB51B125D96ECC51B221EB
:100A8000DA6EB50EC725E16E000EC821E26EDFCF2B
:100A9000E7FFC74BC82BCB4BCC2BDBD7000ECE6F61
:100AA000000ECD6FCEBF06D0CE516FE1040ECD5DEE
:100AB000D8B06BD0CDC020F0CEC021F03BEC15F00B
:100AC00020C0BBF021C0BCF022C0BDF0BBC0A3F071
:100AD000BCC0A4F0BDC0A5F0000E0001A06F200EA8
:100AE000A16F410EA26FB9EC09F0A0C0BEF0A1C089
:100AF000BFF0A2C0C0F0BEC02CF0BFC02DF0C0C07F
:100B00002EF0020E0001CD25B36F000ECE21B46F82
:100B1000B31FB41FB34BB42B050EB327000EB42381
:100B2000B50EB325D96E000EB421DA6EDF5008EC95
:100B300017F020C029F021C02AF022C02BF000ECD1
:100B40000CF029C06CF02AC06DF02BC06EF0C9C04B
:100B500020F0CAC021F03BEC15F020C069F021C0A4
:100B60006AF022C06BF0E2EC08F069C078F06AC06D
:100B700079F06BC07AF084EC0BF078C0C9F079C0E2
:100B8000CAF00001CD4BCE2B8DD7000EA36FA00E67
:100B9000A46F400EA56F000EA06F000EA16F400E57
:100BA000A26FB9EC09F0A0C0C1F0A1C0C2F0A2C010
:100BB000C3F0C1C02CF0C2C02DF0C3C02EF0C9C01C
:100BC00020F0CAC021F03BEC15F020C029F021C074
:100BD0002AF022C02BF000EC0CF029C069F02AC0EA
:100BE0006AF02BC06BF0000E00016C6FE60E6D6FAB
:100BF000440E6E6F7BEC0CF069C0C4F06AC0C5F0A7
:100C00006BC0C6F0C4C078F0C5C079F0C6C07AF039
:100C100084EC0BF000017851BA6F610E246E060E61
:100C20009EEC13F01200000E0101DC6FDFD0040E09
:100C30000001E5651200010EE46F1200BAEC16F037
:100C4000000E0001DD6F010EE5650ED058EC14F0CA
:100C50000101DC6FDCC1C2F1240EDC19D8A4120042
:100C6000020E0001E46F1200000EE46F1200010E8C
:100C7000E565120058EC14F00001E36FE3C0C3F126
:100C8000030EE46F1200010EE565120058EC14F03B
:100C90000001E26FE2C0C4F1040EE46F1200010E25
:100CA000E565120058EC14F00001E16FE1C0C5F1F8
:100CB000E151D8A403D0060EE46F1200050EE46FD4
:100CC0001200E151E55DD8A01200AE0E206E010EBB
:100CD000216E000E236E140E226E5DEC17F0000ED6
:100CE0000101DB6F000EDA6F22D058EC14F0010125
:100CF000DC6F0001DD510101D66FD76B040ED627E2
:100D0000000ED723C20ED625D96E010ED721DA6E7A
:100D1000DCC1DFFF0001DD2BAE0E0101DA25D96E4B
:100D2000010EDB21DA6EDCC1DFFFDA4BDB2B0001C9
:100D3000E1510101D66FD76BD651DA5DDB51800AE4
:100D4000D86FD751800AD859D8A0CFD7060E000146
:100D5000E46F1200E551D8B4120058EC14F0000111
:100D6000DE6FC20E186E010E196E040EDD251A6EAE
:100D70001B6A000E1B22C7EC13F00001DF6FDF516E
:100D8000DE19D8A403D0070EE46F1200000EE46F42
:100D90001200FE0E0101D66FFF0ED76F0001E35166
:100DA0000101D86FD96BD890D837D937D651D82709
:100DB000D751D923EA0ED825D96E000ED921DA6E83
:100DC00001D810D00500FA6EDE50FD6EDE50FE6ECA
:100DD000F850FF6EFA50AE0E0001CF6F010ED06FCB
:100DE000E2511200000E0001E46F12000001E45114
:100DF000000AD8B41CD7010AD8B420D7030AD8B443
:100E000036D7010AD8B43FD7070AD8B448D7010A61
:100E1000D8B457D7030AD8B49DD7010AD8A4120072
:100E2000B8D70001975198119911D8A407D0000E96
:100E3000976F800E986F3F0E996F1200720E186EAA
:100E4000310E196E440E1A6E97C01BF098C01CF03C
:100E500099C01DF0E4EC10F0D8B00CD0000E0001E9
:100E6000D86F220ED76FFF0E976F7F0E986F7F0E91
:100E7000996F120097C018F098C019F099C01AF035
:100E8000490E1B6E3A0E1C6EC40E1D6EE4EC10F083
:100E9000D8B00CD0000E0001D86F220ED76F000E14
:100EA000976F000E986F000E996F1200000199AFB6
:100EB00002D0010E01D0000E9F6F9F51D8B40ED00A
:100EC00097C018F098C019F099C01AF01AEC17F0F2
:100ED00018C097F019C098F01AC099F097C029F07F
:100EE00098C02AF099C02BF0AA0E2C6EB80E2D6E69
:100EF0003F0E2E6E00EC0CF029C097F02AC098F03F
:100F00002BC099F097C08FF098C090F099C091F0E5
:100F100061EC0DF08FC09AF090C09BF091C09CF0F6
:100F20009AC078F09BC079F09CC07AF084EC0BF00A
:100F300078C09DF079C09EF097C075F098C076F0AB
:100F400099C077F09DC020F09EC021F03BEC15F0D9
:100F500020C078F021C079F022C07AF0BDEC14F006
:100F600075C097F076C098F077C099F097C075F08B
:100F700098C076F099C077F0380E0001786F060EB1
:100F8000796F000E7B6F090E7A6FD2EC0DF075C091
:100F90007FF076C080F077C081F09DC082F09EC067
:100FA00083F03DEC0EF07FC097F080C098F081C0D8
:100FB00099F000019F51D8B425D097290EE17F0EFA
:100FC00098190BE17F0E9919D8A407D0000E976FDE
:100FD000000E986F000E996F1200000E696F800E60
:100FE0006A6F3F0E6B6F97C06CF098C06DF099C040
:100FF0006EF07BEC0CF069C097F06AC098F06BC0A3
:1010000099F0120097C097F098C098F099C099F0A5
:101010001200000E0001BB6F000EBA6F3C50D8A446
:1010200072D0000EBC6F060EBC6501D01200BC5120
:10103000010D310EF324F66E060EF420F76E080053
:10104000F5505EEC16F018C0B3F019C0B4F0000E05
:101050000001A36F200EA46F410EA56F000EA06FBC
:10106000000EA16F400EA26FB9EC09F0A0C0B7F05E
:10107000A1C0B8F0A2C0B9F0C00E2C6E500E2D6EFB
:10108000450E2E6EB7C06CF0B8C06DF0B9C06EF0F2
:10109000B3C020F0B4C021F02CEC17F020C069F0F0
:1010A00021C06AF022C06BF07BEC0CF069C029F023
:1010B0006AC02AF06BC02BF000EC0CF029C078F06D
:1010C0002AC079F02BC07AF084EC0BF078C0BAF02B
:1010D00079C0BBF0BAC02DF0BBC02EF00001BC2916
:1010E0002F6E07EC0BF0030E0001B26F8A0EB16F8A
:1010F000550EE82EFED7B12FFCD7B22FFAD700D06D
:101100000001BC2B90D73C04D8A41200E651010D7D
:10111000310EF324F66E060EF420F76E0800F5503B
:101120005EEC16F018C0B5F019C0B6F0000E000164
:10113000A36F200EA46F410EA56F000EA06F000ECE
:10114000A16F400EA26FB9EC09F0A0C0B7F0A1C02A
:10115000B8F0A2C0B9F0C00E2C6E500E2D6E450E28
:101160002E6EB7C06CF0B8C06DF0B9C06EF0B5C0EF
:1011700020F0B6C021F02CEC17F020C069F021C09F
:101180006AF022C06BF07BEC0CF069C029F06AC0F9
:101190002AF06BC02BF000EC0CF029C078F02AC0CC
:1011A00079F02BC07AF084EC0BF078C0BAF079C0FB
:1011B000BBF0BAC02DF0BBC02EF0010E2F6E07ECB5
:1011C0000BF012006BC06FF00001706B716B6A3531
:1011D0006F3701E370816F51746F6EC06FF0706B89
:1011E000716B6D356F3701E370816F51736F74519F
:1011F000D8B40BD07351745DD8B00ED074510008C0
:1012000073256F6F180E6F6507D06CC069F06DC0E5
:101210006AF06EC06BF012007351D8B40BD07451E9
:10122000735DD8B00ED07351000874256F6F180E1F
:101230006F6507D069C069F06AC06AF06BC06BF077
:101240001200060E726F6BBF728F6EBF728D6A8F47
:10125000FF0E6917FF0E6A17000E6B176D8FFF0EDA
:101260006C17FF0E6D17000E6E177351745DD8B0BA
:101270001BD0D8906C376D376E3773077451731964
:10128000D8B40DD0720772C06FF0070E6F17D8B4C4
:1012900006D0EFD7D8906B336A336933742B735110
:1012A0007419D8B41FD0F6D77451735DD8B01AD062
:1012B000D89069376A376B37740774517319D8B48B
:1012C0000DD0720772C06FF0070E6F17D8B406D03A
:1012D000EFD7D8906E336D336C33732B7351741911
:1012E000D8A4F7D772AF0CD0FF0E691BFF0E6A1B94
:1012F000FF0E6B1B010E6927000E6A23000E6B2385
:1013000072AD0CD0FF0E6C1BFF0E6D1BFF0E6E1B23
:10131000010E6C27000E6D23000E6E23000E726FFF
:1013200069516C276A516D236B516E236EAF0ED0DD
:10133000FF0E6C1BFF0E6D1BFF0E6E1B010E6C274C
:10134000000E6D23000E6E23010E726F6CC018F03C
:101350006DC019F06EC01AF074C01BF072C01CF0A2
:101360005EEC0FF018C069F019C06AF01AC06BF09B
:101370001200000E0001AC6FA051A111A211D8A45F
:101380001DD0000E186E000E196E000E1A6EA3C04E
:101390001BF0A4C01CF0A5C01DF0E4EC10F0D8A018
:1013A00005D0000E0001D86F210ED76F000E00018E
:1013B000A06F000EA16F000EA26F1200A351A41126
:1013C000A511D8A407D0000EA06F800EA16F3F0E0C
:1013D000A26F1200A2AF41D0A3C078F0A4C079F0F0
:1013E000A5C07AF084EC0BF078C0ADF079C0AEF017
:1013F0007AC0AFF07BC0B0F0ADC020F0AEC021F03D
:10140000AFC022F0B0C023F01BEC13F00001A351D9
:10141000201807E1A451211804E1A5512218D8B4DD
:101420000BD0000ED86F210ED76F000EA06F000EEC
:10143000A16F000EA26F1200AD51010BAC6FA0C0E6
:1014400018F0A1C019F0A2C01AF01AEC17F018C0D9
:10145000A0F019C0A1F01AC0A2F0A0C07FF0A1C0F6
:1014600080F0A2C081F077EC0AF07FC0A6F080C0C7
:10147000A7F081C0A8F0A6C029F0A7C02AF0A8C094
:101480002BF0A3C02CF0A4C02DF0A5C02EF000ECD2
:101490000CF029C0A9F02AC0AAF02BC0ABF0A9C05B
:1014A00097F0AAC098F0ABC099F011EC07F097C084
:1014B000A0F098C0A1F099C0A2F00001AC51D8B43E
:1014C0000FD0A0C018F0A1C019F0A2C01AF01AECF9
:1014D00017F018C0A0F019C0A1F01AC0A2F01200B5
:1014E000A0C0A0F0A1C0A1F0A2C0A2F01200000113
:1014F00081AF0BD0000ED86F210ED76F000E7F6F1B
:10150000000E806F000E816F12007F5180118111DB
:10151000D8A40BD0000ED86F220ED76F000E7F6FAD
:10152000000E806F000E816F1200000E2C6E000EF8
:101530002D6E400E2E6E820E1B6E000E1C6E7FC036
:1015400018F080C019F081C01AF09CEC10F018C09F
:1015500029F019C02AF01AC02BF000EC0CF029C0B9
:1015600069F02AC06AF02BC06BF0000E00016C6FAE
:10157000800E6D6FBF0E6E6FE2EC08F069C07FF0F9
:101580006AC080F06BC081F000018207D8A0830799
:101590007FC075F080C076F081C077F0560E786F0E
:1015A000060E796F000E7B6F080E7A6FD2EC0DF08D
:1015B00075C07FF076C080F077C081F0720E2C6E1F
:1015C000310E2D6E3F0E2E6E82C020F083C021F0B2
:1015D0003BEC15F020C029F021C02AF022C02BF0EE
:1015E00000EC0CF029C069F02AC06AF02BC06BF047
:1015F0007FC06CF080C06DF081C06EF0E2EC08F04E
:1016000069C07FF06AC080F06BC081F012002F507B
:101610000001606F616B0C0ED89060376137E82E67
:10162000FBD760C062F061C063F062512D1263515C
:101630002E12D890D935D96EDA35DA6E6E0ED926DB
:10164000010EDA222DC0DEFF2EC0DDFFD94BDA2BD2
:10165000D9C060F0DAC061F0D8906037613761516D
:1016600004E1400E605DD8A01200DCEC17F0000928
:10167000D8B4120042C01DF043C01EF044C01FF099
:1016800045C020F06E0E216E010E226E00EC0FF0B0
:10169000400E4226000E432244224522455044106B
:1016A00006E1F00E425C7F0E4358D8A018D0000E21
:1016B000426E400E436E000E446E000E456E010EEB
:1016C0003B6E400E0001F719F611F811F911D8A47C
:1016D00006D0400EF627000EF723F823F923310435
:1016E000FF0E3258FF0E3358FF0E3458D8B006D0D4
:1016F000010E3126000E322233223422000E000168
:10170000DA6F000ED96F12007AC07CF000017D6B99
:101710007E6B79357C3701E37D817C51866F865104
:10172000D8A409D0000E786F000E796F000E7A6F82
:10173000000E7B6F1200170E7C6F78C07DF079C0B1
:101740007EF07AC07FF07C29806F04D0D8907F3300
:101750007E337D33802FFAD700017D51816F798FE1
:10176000FF0E7817FF0E7917000E7A177851826FE7
:101770007951836F7A51846F856B8E0E865F86AF49
:1017800016D08651800A8F0FD8B009D0000E786F1E
:10179000000E796F000E7A6F000E7B6F1200D890EA
:1017A0008533843383338233863FF9D715D0170EC0
:1017B00086650FD0000E786F000E796F000E7A6F7D
:1017C000000E7B6F1200D8908237833784378537BD
:1017D00086078651D8A4F7D78151D8B408D0851F81
:1017E000841F831F826D000E83238423852382C080
:1017F00078F083C079F084C07AF085C07BF0120065
:101800002BC060F00001616B626B2A34603701E32A
:1018100061816051636F6351D8A407D0000E296EB7
:10182000000E2A6E000E2B6E12002EC060F0616B4F
:10183000626B2D34603701E361816051686F6851DC
:10184000D8A407D0000E296E000E2A6E000E2B6E53
:10185000120068517B0F63272BC068F02E50681B65
:10186000800E68172A8E2D8EFF0E2C16FF0E2D1659
:10187000000E2E16000E646F000E656F000E666F70
:10188000070E676F29A006D02C5064272D506523C2
:101890002E506623D8902B322A322932D8902C36FB
:1018A0002D362E36672FEED7090E676F29A006D08A
:1018B0002C5064272D5065232E506623D8902B3250
:1018C0002A322932D890663365336433672FEED7D6
:1018D00064C018F065C019F066C01AF063C01BF050
:1018E00068C01CF05EEC0FF018C029F019C02AF097
:1018F0001AC02BF012006BC06FF00001706B716B9F
:101900006A356F3701E370816F51766F7651D8A4D5
:1019100007D0000E696F000E6A6F000E6B6F120029
:101920006EC06FF0706B716B6D356F3701E3708156
:101930006F51776F7751D8A407D0000E696F000EF2
:101940006A6F000E6B6F1200000E736F000E746FE3
:10195000000E756F7751890F765F6BC077F06E510F
:10196000771B800E77176A8FFF0E6917FF0E6A17B5
:10197000000E6B176D8FFF0E6C17FF0E6D17000EAC
:101980006E17180E726FD8907337743775376C51A5
:10199000695D6D516A596E516B59D8A007D06C5171
:1019A000695F6D516A5B6E516B5B7381D89069376B
:1019B0006A376B37722FE7D773C018F074C019F00D
:1019C00075C01AF076C01BF077C01CF05EEC0FF00B
:1019D00018C069F019C06AF01AC06BF01200240E2A
:1019E0000001606F020E616F210E626F040E636F63
:1019F000D3C069F0D4C06AF0D5C06BF0D6C06CF02B
:101A0000000E6E6F000E6D6F6EBF06D06E5142E11C
:101A1000040E6D5DD8B03ED0040E6D25256E000E0F
:101A20006E21266E600E2524D96E000E2620DA6EF9
:101A300069C018F06AC019F06BC01AF06CC01BF0D6
:101A40000A0E1C6E000E1D6E000E1E6E000E1F6E26
:101A500059EC12F01850DF6E69C018F06AC019F026
:101A60006BC01AF06CC01BF00A0E1C6E000E1D6ECF
:101A7000000E1E6E000E1F6E2CEC11F018C069F0E7
:101A800019C06AF01AC06BF01BC06CF000016D4BFE
:101A90006E2BBAD7600E186E000E196E000E1B6EFC
:101AA000080E1A6EC7EC13F00001686F600E196E15
:101AB000000E1A6E000E1C6E090E1B6EC4EC15F0A3
:101AC00012008FC018F090C019F091C01AF0950E56
:101AD0001B6E000E1C6E9CEC10F0000196AF10D037
:101AE00091AF07D0000E8F6F800E906FBF0E916F79
:101AF0001200000E8F6F000E906F000E916F12009B
:101B0000965104E1150E955DD8A007D08FC08FF0D7
:101B100090C090F091C091F012008FC078F090C00A
:101B200079F091C07AF084EC0BF078C087F079C03E
:101B300088F07AC089F07BC08AF0AEEC11F087C0E3
:101B400092F088C093F089C094F08FC018F090C0D4
:101B500019F091C01AF092C01BF093C01CF094C011
:101B60001DF0E4EC10F0D8B016D092C069F093C02C
:101B70006AF094C06BF0000E00016C6F800E6D6F08
:101B8000BF0E6E6FE2EC08F069C08FF06AC090F093
:101B90006BC091F0120092C08FF093C090F094C08F
:101BA00091F012007AC018F07BC019F0000E1B6E85
:101BB000030E1A6EF5EC16F078C02FF079C030F0F5
:101BC00018502F26195030222FC0F6FF30C0F7FFD3
:101BD0000900F5CF7CF00900F5CF7DF00A00F5CFC4
:101BE0007EF03FD07CC02CF07DC02DF07EC02EF06A
:101BF00075C029F076C02AF077C02BF000EC0CF00D
:101C000029C069F02AC06AF02BC06BF0000E1B6E71
:101C1000030E1A6E00017A07D8A07B077AC018F06D
:101C20007BC019F0F5EC16F078C02FF079C030F0D9
:101C300018502F26195030222FC0F6FF30C0F7FF62
:101C40000900F5CF6CF00900F5CF6DF00A00F5CF73
:101C50006EF0E2EC08F069C07CF06AC07DF06BC009
:101C60007EF000017A517B11D8A4BCD77CC075F0FE
:101C70007DC076F07EC077F0120000017F518011A8
:101C80008111D8A407D0000E7F6F000E806F000E68
:101C9000816F120081517F0B846F856BD8908437E0
:101CA0008537845182278551832380AF03D0846B8D
:101CB000842B02D00001846B84518227000E832381
:101CC00083AF0BD0000ED86F220ED76F000E7F6F40
:101CD000000E806F000E816F120083BF15D0830548
:101CE000D8A012D0000ED86F220ED76F81AF06D0C9
:101CF000FF0E7F6F7F0E806FFF0EEDD7FF0E7F6FA1
:101D00007F0E806F7F0EE7D783358331856F8231F9
:101D1000846F81518419800B8419816F82C084F093
:101D2000010E841784338433805184197F0B841906
:101D3000806F7FC07FF080C080F081C081F0120092
:101D4000260E206E000E216E000E236E090E226EEE
:101D50005DEC17F0240E266E050E276E520E286ECF
:101D6000040E296E3F0E196EF00E186E010E1A6EDB
:101D70002DEC16F02A6E3F0E196EF00E186E000E46
:101D80001A6E2DEC16F02B6E42C024F043C025F0E5
:101D9000241E251E244A252AF00E2424186E7F0EA8
:101DA0002520196E010E1A6E2DEC16F02C6E42C015
:101DB00024F043C025F0241E251E244A252AF00EB7
:101DC0002424186E7F0E2520196E000E1A6E2DEC3D
:101DD00016F02D6E260E186E000E196E000E1B6E7C
:101DE000080E1A6EC7EC13F02E6E260E196E000E3A
:101DF0001A6E000E1C6E090E1B6EC4EC15F012005C
:101E0000C00E236E7F0E246E1DC025F01EC026F06E
:101E1000235025162450261625C027F026C028F06A
:101E2000296A2A6A000EF2BE010E2B6E27501D1879
:101E300044E128501E1841E129501F183EE12A5064
:101E40002018D8A412001DC018F01EC019F01FC021
:101E50001AF020C01BF013EC16F01FC0F8FF1EC0D4
:101E6000F7FF1DC0F6FF000E2C6E3F0E2C6401D054
:101E700013D02C50010DF3502124D96EF4502220A0
:101E8000DA6EDF50F56E3F0E2C18D8A402D00C008D
:101E900001D00D002C2AE9D7A188A68EA69CA68485
:101EA000F29E550EA76EAA0EA76EA682A6942BB020
:101EB00002D0F29E01D0F28E120012001B50D8B454
:101EC00005D0185019101A10D8A40CD0000E186E96
:101ED000000E196E000E1A6E12001B2AD8901A32CC
:101EE00019321832000E18141D6E000E19141E6ED1
:101EF000FE0E1A141F6E1D501E101F10D8B40CD0E9
:101F0000ECD71B2A010E1826000E1922000E1A22E9
:101F1000D8901A3219321832000E18141D6E000EA5
:101F200019141E6EFF0E1A141F6E1D501E101F1066
:101F3000D8B406D0E6D71B06D890183619361A360C
:101F400019BE03D0020E1B60F6D71BA0199ED890B5
:101F50001B321B501A121C50D8A41A8E18C018F02D
:101F600019C019F01AC01AF01200E00E00016C6FCF
:101F7000FF0E6D6F460E6E6F42C078F043C079F071
:101F800044C07AF045C07BF0781F791F7A1F7B1F11
:101F9000782B000E79237A237B23F00E7825206E90
:101FA0007F0E7921216E000E7A21226E000E7B2198
:101FB000236E1BEC13F020C069F021C06AF022C030
:101FC0006BF07BEC0CF069C029F06AC02AF06BC0A2
:101FD0002BF0000E2C6EC80E2D6E420E2E6E00ECF5
:101FE0000CF029C07CF02AC07DF02BC07EF0000EE2
:101FF000186E960E196E420E1A6E7CC01BF07DC0D4
:102000001CF07EC01DF0E4EC10F0D8B002D0010E40
:102010001200000E1200F2944750D76E46C0D6FF51
:10202000354A362A35C001F036C002F0000E046E83
:10203000140E036EDEEC14F001500210D8A403D08D
:10204000010E0001E96F35C001F036C002F0000E4C
:10205000046E320E036EDEEC14F001500210D8A4B0
:1020600003D0010E0001E86F35C001F036C002F068
:10207000010E046E2C0E036EDEEC14F00150021003
:10208000D8A403D0010E0001E76F35C001F036C0BF
:1020900002F0010E046E2C0E036EDEEC14F001C093
:1020A00035F002C036F01200260E206E000E216EB2
:1020B000000E236E090E226E5DEC17F0240E266EC4
:1020C000020E276E230E286E040E296E000E306E4F
:1020D000000E2F6E30BE06D0305018E1040E2F5C7B
:1020E000D8B014D0040E2F24246E000E3020256E9C
:1020F000260E2424D96E000E2520DA6E2F50040FF0
:1021000001EC18F0DF6E2F4A302AE4D7260E186E45
:10211000000E196E000E1B6E080E1A6EC7EC13F03F
:102120002E6E260E196E000E1A6E000E1C6E090E13
:102130001B6EC4EC15F01200185019101A10D8A418
:102140000FD01BC0D9FF1CC0DAFF000EDE6E000EE0
:10215000DD6E000E186E000E196E000E1A6E120063
:102160001A507F0B1D6E1E6AD8901D361E361BC07E
:10217000D9FF1CC0DAFF1DC0DEFF1EC0DDFF19AE97
:1021800003D01D6A1D2A01D01D6A1D501BC0D9FF36
:102190001CC0DAFFDE12000EDD121BC0D9FF1CC00E
:1021A000DAFF820EDE26FF0EDD221A801A821A84E2
:1021B0001A861A881A8A1A9C199E18C018F019C013
:1021C00019F01AC01AF012001AAE16D018C01EF07C
:1021D00019C01FF01AC020F01E1E1F1E201E1E2A2E
:1021E000000E1F222022000E1E24186E000E1F203B
:1021F000196E800E20201A6E1DAE16D01BC01EF068
:102200001CC01FF01DC020F01E1E1F1E201E1E2AF7
:10221000000E1F222022000E1E241B6E000E1F2007
:102220001C6E800E20201D6E000E181A000E191A4A
:10223000800E1A1A000E1B1A000E1C1A800E1D1A90
:102240001B50185C1C5019581D501A58D8B002D099
:10225000D8901200D8801200000E206E000E216E61
:10226000000E226E000E236E1C501D101E101F103B
:10227000D8B42AD0010E246E06D0D8901C361D3654
:102280001E361F36242A1FAEF8D7D89020362136A6
:10229000223623361C50185C1D5019581E501A58EF
:1022A0001F501B58D8A009D01C50185E1D50195A39
:1022B0001E501A5A1F501B5A2080D8901F321E32AF
:1022C0001D321C32242EE1D720C018F021C019F095
:1022D00022C01AF023C01BF01200260E206E000E42
:1022E000216E000E236E090E226E5DEC17F0240E97
:1022F000266E020E276E220E286E040E296E000E28
:102300002F6E030E2F6401D013D02F50246E256A38
:10231000040E2426000E2522260E2424D96E000E3B
:102320002520DA6E2F5001EC18F0DF6E2F2AE9D746
:10233000260E186E000E196E000E1B6E080E1A6E19
:10234000C7EC13F02E6E260E196E000E1A6E000EDC
:102350001C6E090E1B6EC4EC15F01200000E306EE0
:102360008E0E2F6E00018AAF11D08A1F891F881F21
:10237000876D000E882389238A23010E306E06D0D4
:10238000D8908A338933883387332F2A000E8715F4
:102390008B6F000E88158C6F000E89158D6FFF0EE8
:1023A0008A158E6F8B518C118D118E11D8A4E8D7A0
:1023B00087C018F088C019F089C01AF02FC01BF030
:1023C00030C01CF05EEC0FF018C087F019C088F028
:1023D0001AC089F01200700EF66E2F0EF76E000E06
:1023E000F86E00EEEAF010EE10F00900F5CFEEFF07
:1023F000E550E150FAE1260EF66E300EF76E000E53
:10240000F86E00EE42F010EE04F00900F5CFEEFF9A
:10241000E550E150FAE101EE00F0D60EEE6AE80672
:10242000FDE100EED3F0170EEE6AE806FDE100EEE6
:1024300031F0110EEE6AE806FDE148904892000E78
:10244000F86E00018CEF12F0000E2E6E000E2D6E55
:102450002EBE06D02E5027E10A0E2D5CD8B023D018
:102460008B80820E2C6EDE0EE82EFED72C2EFCD733
:102470008A88820E2C6EDE0EE82EFED72C2EFCD71C
:102480008B90820E2C6EDE0EE82EFED72C2EFCD703
:102490008A98820E2C6EDE0EE82EFED72C2EFCD7EC
:1024A0002D4A2E2AD5D7150E246E010E9EEC13F060
:1024B00012001C501D101E101F10D8B424D0010E85
:1024C000206E06D0D8901C361D361E361F36202AA8
:1024D0001FAEF8D71C50185C1D5019581E501A58C2
:1024E0001F501B58D8A008D01C50185E1D50195AF8
:1024F0001E501A5A1F501B5AD8901F321E321D32BE
:102500001C32202EE7D718C018F019C019F01AC0D5
:102510001AF01BC01BF0120006EC18F090EC17F03C
:10252000FBEC17F0030EBDEC12F013EC06F000010B
:10253000E905D8A406D07AEC14F0000E0001E96F8A
:10254000F4D7E805D8A410D079EC17F0B5EC0FF06B
:102550000009D8B403D0040EECEC12F009EC08F03A
:10256000000E0001E86FE1D7E705D8A4DED7F5EC4F
:1025700017F0000E0001E76FD8D71B6E000E1D6E1E
:10258000000E1C6E1B50186E196A18501C5C1D50F2
:10259000800A1A6E1950800A1A58D8B012008B900F
:1025A000020E196E040E186EBA0EE82EFED7182E03
:1025B000FCD7192EFAD700D08B80020E196E040EAC
:1025C000186EBA0EE82EFED7182EFCD7192EFAD7A1
:1025D00000D01C4A1D2AD6D71B6E000E1D6E000EA1
:1025E0001C6E1B50186E196A18501C5C1D50800A16
:1025F0001A6E1950800A1A58D8B012008A98020E22
:10260000196E040E186EBA0EE82EFED7182EFCD7DF
:10261000192EFAD700D08A88020E196E040E186E91
:10262000BA0EE82EFED7182EFCD7192EFAD700D0F6
:102630001C4A1D2AD6D78E0E286E06D0D89023327B
:10264000223221322032282A000E2014246E000E5D
:102650002114256E000E2214266EFF0E2314276E01
:102660002450251026102710D8A4E8D720C018F031
:1026700021C019F022C01AF028C01BF0000E1C6EF9
:102680005EEC0FF018C020F019C021F01AC022F043
:1026900012000001D16F17D06DEC11F01200CFC005
:1026A0002CF0D0C02DF073EC15F0120054EC10F0AB
:1026B0001200CFC02CF0D0C02DF09CEC14F0120012
:1026C000EFEC0CF012000001D151210AD8B4F8D778
:1026D000030AD8B4E1D7010AD8B4E8D7070AD8B4B6
:1026E000DED7010AD8A41200E4D7000E426E400ED5
:1026F000436E000E446E000E456E000E0001F66F34
:10270000400EF76F000EF86F000EF96F000E316E7D
:10271000000E326E000E336E000E346E6E0E206EA2
:10272000010E216E000E236E200E226E5DEC17F05E
:10273000510E246E050E9EEC13F01200256E260E2F
:10274000206E000E216E000E236E060E226E5DECD2
:1027500017F0240E266E25C027F024C028F0000EA6
:10276000296E260E186E000E196E000E1B6E050ED9
:102770001A6EC7EC13F02B6E260E196E000E1A6E31
:10278000000E1C6E060E1B6EC4EC15F01200000E3F
:102790001E6E000E1D6E000E206E000E1F6E0ED0FF
:1027A0001F501824D96E20501920DA6EDF501C6E8D
:1027B0001C501D26000E1E221F4A202A1A501F5C84
:1027C0002050800A1C6E1B50800A1C58D8A0E8D7E5
:1027D000FF0E1D16000E1E161D5012000001D16FB7
:1027E00015D0CFC02CF0D0C02DF0EFEC17F01200B8
:1027F000CFC02CF0D0C02DF046EC16F01200CFC0A8
:102800002CF0D0C02DF0E9EC17F012000001D151EE
:10281000310AD8B4E6D7030AD8B4EAD7010AD8A453
:102820001200EDD7000E8D6E000E8C6E000E896EBC
:10283000000E8A6E000E8B6E070E966EE10E926E83
:10284000EF0E936E800E946EF20E956E3C0E0F019D
:102850003A6F330E396FED0E3B6F070E3C6F2F0E44
:10286000386FC20E616EF19EF28612000001D26FC7
:1028700013D075EC13F01200A0EC0EF01200CFC0D4
:10288000D9FFD0C0DAFFDF500001D16FD151246EE3
:10289000256A39EC03F012000001D251510AD8B474
:1028A000E8D7030AD8B4E8D7010AD8A41200E7D7BA
:1028B000000E1A6E000E196E0001E551D8A402D068
:1028C000195012003750010D460EF324D96E010E37
:1028D000F420DA6EDF50186E1850196E1A6A372A13
:1028E000270E376402D0000E376E9D9AE5079D8A49
:1028F00019501200010E0001D327000ED423D52356
:10290000D623D3C018F0D4C019F0D5C01AF0D6C061
:102910001BF0800E1C6E430E1D6E000E1E6E000E10
:102920001F6E59EC12F018C0D3F019C0D4F01AC0C1
:10293000D5F01BC0D6F01200000E2F6E000E2E6ECA
:102940002FBE06D02F5013E1040E2E5CD8B00FD04E
:102950002E502C24D96E2F502D20DA6EDF501B6E96
:102960002E50040FC0EC17F02E4A2F2AE9D7250E5F
:10297000246E020E9EEC13F01200000178517911C2
:102980007A11D8B406D0000E781B000E791B800E89
:102990007A1B75C069F076C06AF077C06BF078C0BA
:1029A0006CF079C06DF07AC06EF0E2EC08F069C0AE
:1029B00075F06AC076F06BC077F012000350041017
:1029C000D8B418D0010E056E04D0D8900336043662
:1029D000052A04AEFAD70350015C04500258D8A06F
:1029E00004D00350015E0450025AD89004320332DE
:1029F000052EF1D701C001F002C002F01200000163
:102A0000D26F09D024EC12F01200C7EC17F01200BC
:102A1000E3EC17F012000001D251110AD8B4F5D737
:102A2000030AD8B4F5D7010AD8B41200070AD8B4FB
:102A30001200010AD8A41200E5D7186E0001FE5159
:102A4000D8B4FCD79DB803D018C0ADFF12D09D9864
:102A50003A50010D000EF324D96E010EF420DA6E07
:102A600018C0DFFF3A2A450E3A6402D0000E3A6ED3
:102A7000FE079D881200000E236E21AE06D0206C4A
:102A8000211ED8B0212A010E236E20C018F021C0CB
:102A900019F01A6A8E0E1B6E23C01CF05EEC0FF04C
:102AA00018C020F019C021F01AC022F01200460E02
:102AB0000001FE6112D03950010D000EF324D96ED1
:102AC000010EF420DA6EDF50AD6E392A450E3964FE
:102AD00002D0000E396EFE2B12009D98000E396E4A
:102AE000000E3A6E1200000E2E6E030E2E6401D000
:102AF0000FD02E50010DF3502C24D96EF4502D2000
:102B0000DA6EDF501B6E2E50C0EC17F02E2AEDD778
:102B1000240E246E020E9EEC13F01200196E000EAD
:102B2000F2BE010E1A6E19C0A9FF18C0A8FFA69E1A
:102B3000A69CA684F29E550EA76EAA0EA76EA6822C
:102B4000A6B2FED7A6941AB002D0F29E01D0F28EA1
:102B500012009D9A9D98080EB86E900EAB6E240ED2
:102B6000AC6E100EAF6E000EB06E000E3A6E000E20
:102B7000396E460E0001FE6F000E386E000E376E85
:102B8000000EE56F9D8A1200000E1F6E000E1E6E75
:102B90000BD01E501924D96E1F501A20DA6EDF5048
:102BA0001DEC15F01E4A1F2A1B501E5C1F50800A88
:102BB0001D6E1C50800A1D58D8B01200EAD70001C3
:102BC000D16F0ED0CFC02CF0D0C02DF076EC16F027
:102BD0001200CFC02CF0D0C02DF04EEC17F0120038
:102BE0000001D151410AD8B4EDD7030AD8A412008C
:102BF000F0D73C0ED76EAF0ED66ED650D7CF1AF0A8
:102C00001B6A1AC01BF01A6A1A10466E1B50476ED8
:102C1000F294F28A000E186E000E196E0BEC18F08A
:102C2000900ED56E1200000EF2BE010E1C6E1AC080
:102C3000F8FF19C0F7FF18C0F6FFA68EA69CA68461
:102C4000A688F29E550EA76EAA0EA76EA6821CB08D
:102C500002D0F29E01D0F28E12000AD0185012005B
:102C600019501200000E1200000E1200000E120089
:102C70001A50000AD8B4F2D7010AD8B4F1D7030A1F
:102C8000D8B4F0D7010AD8B4EFD7F0D72CC0D9FF09
:102C90002DC0DAFFDF503C6E3C04D8A409D020EEF2
:102CA00001F02C50D9262D50DA22DF500001E66FBA
:102CB000320E246E030E9EEC13F012001C6E1CC02C
:102CC0001AF01A461A46C2501A18830B1A18C26E06
:102CD000C280C282C2B2FED7C4501B6E1A6AC350F1
:102CE0001A24186E000E1B20196E1200000E00012F
:102CF000606F000E616F000E626F000E636F1A0E40
:102D0000E82EFED700D01A0EE82EFED700D0410ED6
:102D1000246E040E9EEC13F01200ABA202D0AB980E
:102D2000AB883850010D460EF324D96E010EF42005
:102D3000DA6EAECFDFFF382A270E386402D0000EDD
:102D4000386E0001E52B120018C01EF019C01FF0EC
:102D500008D01EC0D9FF1FC0DAFF1AC0DFFF1E4A0D
:102D60001F2A1C06D8A01D061C28F3E11D28D8B474
:102D70001200EFD7000E0001E16F000EDF6F000EB2
:102D8000DE6F000EDD6FC20E206E010E216E000E92
:102D9000236E140E226E5DEC17F0120019AE0DD0EA
:102DA00018C01AF019C01BF01A1E1B1E1A4A1B2A43
:102DB0001AC018F01BC019F0120018C018F019C082
:102DC00019F01200000E0F01386F000E3B6F000E5D
:102DD000926E000E896E000E956E000E8C6E000EC7
:102DE0000001FD6F010EFC6F120018501A02F3CFA4
:102DF0001CF0F4CF1DF018501B02F3501D26195083
:102E00001A02F3501D261CC018F01DC019F0120044
:102E1000236E2350186E196A1A6A8E0E1B6E000EEE
:102E20001C6E5EEC0FF018C020F019C021F01AC023
:102E300022F01200185019101A10D8B406D0000E43
:102E4000181A000E191A800E1A1A18C018F019C094
:102E500019F01AC01AF0120020C018F021C019F0A1
:102E60001A6A8E0E1B6E000E1C6E5EEC0FF018C000
:102E700020F019C021F01AC022F012000001D16F19
:102E800007D0CFC0B1F0D0C0B2F014EC05F0120002
:102E90000001D151610AD8A41200F3D7210E00011C
:102EA000606F430E616F650E626F870E636F420E37
:102EB000246E040E9EEC13F0120020C018F021C006
:102EC00019F0000E1B6E000E1A6E22C01CF023C0FB
:102ED0001DF0A4EC16F0120015EC18F012EC14F032
:102EE000CEEC17F085EC17F0F9EC15F0A9EC15F025
:102EF00012008BB003D0186A182A01D0186A8B50C0
:102F00001818FE0B18188B6E1200050EC26E000EFC
:102F1000C16E870EC06E000EC36E000EC46E12002E
:102F2000D5EC17F017EC18F0E2EC16F010EC18F0F6
:102F3000A5EC17F01200186E18C0A9FFA69CA69E5B
:102F4000A68000F000F0A8501200000E0001D36F20
:102F5000000ED46F000ED56F000ED66F12001AC08F
:102F6000F8FF19C0F7FF18C0F6FF0800F55012006F
:102F7000FE299226DC27BE2B6C287C2E0040000008
:102F80001C6E1BC018F01C508EEC15F01200110EB8
:102F9000246E010E9EEC13F0FF001200600ED36E43
:102FA000040ED26E000E9B6E1200000E3D6E000EDF
:102FB0003C6E000E186E1200A6A201D002D0010EC7
:102FC0001200000E1200120E246E010E9EEC13F081
:102FD0001200330E246E030E9EEC13F01200310E1D
:102FE000246E030E9EEC13F01200160E246E010EDA
:102FF0009EEC13F01200100E246E010E9EEC13F0E6
:103000001200196E19509BEC17F012006CEC17F0BF
:10301000F28EF28C120018C0FAF019C0FBF0120008
:10302000800E626E120000400000D09E1200D58E0D
:0A3030001200F2901200A1981200A5
:020000040020DA
:08000000FFFFFFFFFFFFFFFF00
:020000040030CA
:0E000000FF281F3CFFBF85FF0FC00FE00F4021
:00000001FF
